:020000040800F2
:100000005810002001010008090100080B01000838
:100010000D0100080F010008110100080000000098
:1000200000000000000000000000000013010008B4
:10003000150100080000000017010008751C0008E9
:100040001B0100081B0100081B0100081B01000820
:100050001B0100081B0100081B0100081B01000810
:100060001B0100081B0100081B0100081B01000800
:100070001B0100081B0100081B0100081B010008F0
:100080001B0100081B0100081B0100081B010008E0
:100090001B0100081B0100081B0100081B010008D0
:1000A0001B0100081B0100081B0100081B010008C0
:1000B0001B010008F91C00081B0100081B010008B7
:1000C0001B0100081B0100081B0100081B010008A0
:1000D0001B010008AD1E00081B010008F51E0008EA
:1000E0001B0100081B0100081B010008DFF80CD0F1
:1000F00000F02AF800480047F12B000858100020B3
:100100000648804706480047FEE7FEE7FEE7FEE7B1
:10011000FEE7FEE7FEE7FEE7FEE7FEE7991C0008C4
:10012000ED000008D2B201E000F8012B491EFBD21D
:1001300070470022F6E710B513460A4604461946F2
:10014000FFF7F0FF204610BD064C074D06E0E068C3
:1001500040F0010394E8070098471034AC42F6D30E
:10016000FFF7C8FF4031000860310008454880694A
:1001700040F00400434988614348006820F470401F
:10018000414908603F48806940F400703D498861FA
:100190000846C06840F40070C8600846C06820F493
:1001A0000070C8600846406820F440404860084637
:1001B000406840F4004048603448006834490840D2
:1001C000324908600846006808600846006820F464
:1001D00080700860081D006820F00200091D08609A
:1001E0000846006820F4602008600846006840F473
:1001F000602008600846006840F4801008600846E7
:10020000006820F40060086020482830006820F46E
:1002100070001E49283108600846006808601B48C5
:100220000C30006820F4606018490C310860084602
:10023000006840F4606008601448001D006840F0E9
:1002400001001249091D08600846006840F00800D6
:10025000086000BF0D48001D006800F0080000287D
:10026000F8D10A48001D006840F004000749091D44
:10027000086000BF0548001D006800F00400002869
:10028000F8D17047001002400008014004240140EA
:10029000FFFFF00070B502460C46FF25FF2309E082
:1002A00012F8010B80EA05010648405C80EA03056C
:1002B0000548435C201EA4F10106F4B2F0D143EAE4
:1002C000052070BD902E0008902F000821B1026813
:1002D00042F00102026004E002684FF6FE731A4029
:1002E0000260704701684FF6FE7211400160002104
:1002F000016041608160C1604B49884208D14A4930
:100300000839496841F00F01474A083A51608AE0CC
:1003100045491431884208D143490839496841F0B8
:10032000F001414A083A51607DE03F492831884256
:1003300008D13D490839496841F470613A4A083AA0
:10034000516070E038493C31884208D1364908395B
:10035000496841F47041344A083A516063E03249D7
:100360005031884208D130490839496841F4702138
:100370002D4A083A516056E02B496431884208D131
:1003800029490839496841F47001274A083A5160FF
:1003900049E025497831884208D12349083949681C
:1003A00041F07061204A083A51603CE01F498842A0
:1003B00006D1011F096841F00F01021F116032E0F0
:1003C0001A491431884208D11849091F096841F0B7
:1003D000F001164A121F116025E0144928318842A5
:1003E00008D11249091F096841F470610F4A121FB0
:1003F000116018E00D493C31884208D10B49091FB2
:10040000096841F47041094A121F11600BE0074965
:100410005031884207D10549091F096841F470210C
:10042000024A121F1160704708000240080402408F
:100430001AB103680B43036002E003688B43036057
:10044000704710B50022026847F6F0739A430C6AB1
:100450008B6823430C6923434C6923438C692343F2
:10046000CC6923434C6A23438C6A23431A430260BA
:10047000CB6843600B6883604B68C36010BD41600C
:100480007047000010B57248007860B900207149CB
:10049000088041F2883002F065FA002002F02FFA5D
:1004A00001206B4908706A48007801280ED10021AC
:1004B0000F2002F0C5F9684908606849084018B182
:1004C00002206349087001E0002010BD60480078F8
:1004D00002281ED162480068401C28B160480068AC
:1004E000401C5F49086002E000205D4908605A48EE
:1004F000008800F4804018B103205549087008E0D6
:10050000584A00210F2002F0E8FA002050490870F4
:10051000DBE74F480078032823D14FF480420021C5
:100520000F2002F0DAFA0021102002F089F9C0F35E
:1005300009004D4908600846008881B200224B48F6
:1005400002F0D2F949480078BB2806D1042040497E
:10055000087000203F49088003E000203C490870F3
:10056000B3E73B48007804285ED1404840784049D2
:100570000870002405E03D49A01C085C3D49085571
:10058000641C062CF7DB3948407A3849097A00EBBD
:100590000120394908803548C07A3449897A00EB0E
:1005A0000120354948803148407B3049097B00EBC8
:1005B0000120314988802D48807B88712B48C07B81
:1005C00008722A48007C48722848407CC871274835
:1005D000C07C2649897C00EB0120274948812348BB
:1005E000007D08732148807D2049497D00EB012072
:1005F0002149C8811D48C07D08741C48007E48748C
:100600001A48807E1949497E00EB01201A49488228
:100610001648C07E08751548007F48751348407F0E
:10062000887505200A4908700948007805280CD10A
:100630000F48027810490F4800F0C8FB0020044919
:10064000087002210D4800F0CEFA00BF3DE700001F
:100650007D0000207A0000208400002000D02724A4
:100660008000002000902724880000207E020020C7
:10067000690000201E00002066020020000C0140DE
:1006800070B505464C480068401C28B14A480068CF
:10069000401C4949086002E00020474908601D21CC
:1006A0004648FFF746FD012D03D1AA2043490870B3
:1006B00004E0022D02D1CC20404908703E48007869
:1006C0003E494870002406E03D48015D3B4AA01CBD
:1006D0001154601CC4B2062CF6DB3A480088000AAC
:1006E0003649087237480078487236484088000A10
:1006F000887234488078C87232488088000A08734B
:100700003048007948732F48807988732D48007AE3
:10071000C8732C48407A08742A48C079487429481C
:100720004089000A88742748807AC8742548007C6C
:1007300008752448407C48752248408A000A88751C
:100740002048807CC8751F48007D08761D48407D84
:1007500048761C48807D887600221D2002F009FA28
:1007600000211D2002F018FA002002F039F900BF24
:1007700000210F2002F064F800F080000028F7D07C
:10078000802200210F2002F0A8F9052001F004FECC
:100790000D4800780A2809DA0B480078401C0A49FD
:1007A00008700221094800F01EFA04E00020064902
:1007B00008700749087070BD8000002048020020C2
:1007C0001E000020660200207C000020000C01407A
:1007D0006800002010B502F091FA02F0C1FA012081
:1007E00001F08CFF02F0B7FA054801F021FE054840
:1007F000008802F0AEF8002002F0EAF810BD000018
:100800000000002018000020014600200022044BB8
:100810001B6803EA01020AB1012000E000207047D2
:10082000000401400549096821F01001034A1160E4
:100830001146096801431160704700000020024022
:1008400001460020034A106800F038000843106099
:10085000704700000020024010B50C221B491C48C4
:1008600001F08CF800240DE0184830F81400000A5C
:10087000184A02F81400154810F814106000401CC3
:100880001154641C042CEFDB1048007A12490870E4
:100890000E4840891149088008460088AB2814D0CA
:1008A000AB20088007200E49088001200D490880F0
:1008B000642009490870002403E001200549085517
:1008C000641C082CF9DB00F00FF810BD2206002094
:1008D00038FB00081E000020240000201C0000201F
:1008E000140000201A00002010B500240CE0600065
:1008F000401C0C49095C0B4A12F8140001EB002063
:10090000094921F81400641C042CF0DB0748007826
:10091000054908810648008848810C22054801F0F5
:1009200063F810BD1E0000202206002024000020D5
:100930001C00002038FB000808B501211D2000F034
:10094000A3FD4FF6FF70ADF8000000208DF8030006
:100950006946304800F066F869462F4800F062F8B2
:1009600069462E4800F05EF801212D4800F0E6F8B7
:100970004FF48040ADF8000004208DF80300694674
:10098000254800F04FF80220ADF8000010208DF847
:10099000030003208DF8020069461F4800F042F86A
:1009A0000120ADF8000010208DF8030003208DF821
:1009B00002006946174800F035F80121154800F09B
:1009C00010F94FF44050ADF8000010208DF80300EE
:1009D00003208DF8020069460F4800F023F84FF419
:1009E00040510D4800F0FDF84FF44040ADF80000D4
:1009F00048208DF8030003208DF802006946064860
:100A000000F010F84FF44041034800F0EAF80020ED
:100A100008BD000000080140000C0140001001402A
:100A2000000230002DE9F04102460025002600209A
:100A300000230024002791F803C00CF00F0591F863
:100A400003C00CF0100CBCF1000F03D091F802C0F1
:100A50004CEA050591F800C0BCF1000F31D01468D4
:100A600000202BE04FF0010C0CFA00F3B1F800C0AD
:100A70000CEA03069E4220D183004FF00F0C0CFAC3
:100A800003F7BC4305FA03FC4CEA040491F803C0E5
:100A9000BCF1280F06D14FF0010C0CFA00FCC2F893
:100AA00014C00AE091F803C0BCF1480F05D14FF023
:100AB000010C0CFA00FCC2F810C0401C0828D1D36D
:100AC0001460B1F800C0BCF1FF0F34DD54680020A1
:100AD0002EE000F1080C4FF0010808FA0CF3B1F811
:100AE00000C00CEA03069E4221D183004FF00F0C98
:100AF0000CFA03F7BC4305FA03FC4CEA040491F832
:100B000003C0BCF1280F05D100F1080C08FA0CF85D
:100B1000C2F8148091F803C0BCF1480F07D100F16E
:100B2000080C4FF0010808FA0CF8C2F81080401CBD
:100B30000828CED35460BDE8F0810000F0B50A4625
:100B4000002300240021002500F00046B6F1004FEC
:100B500002D11D4EF16901E01B4E7168C0F30345DF
:100B600083B200F44016B6F5401F08D121F0706141
:100B7000154E766826F07066134F7E6012E000F422
:100B80008016B6F5801F06D1032606FA05F4A143A8
:100B900041F0706106E0460D360103FA06F6B143F6
:100BA00041F0706122B1460D360103FA06F6314379
:100BB00000F00046B6F1004F02D1034EF16101E0B2
:100BC000014E7160F0BD00000000014002460020AF
:100BD000D3680B400BB1012000E000207047416159
:100BE00070470161704770B504460D46294620469E
:100BF000FFF7ECFF08B9012000E00020064632466E
:100C00002946204600F001F870BD0AB1016100E0FC
:100C1000416170472DE9F05F0446884691463D48A2
:100C2000C0F80090A8F10200C1B22046FFF732FBE5
:100C30008246207838490988884257D1A8F10200B5
:100C4000205CB0EB1A2F51D1A8F10100205C0AF012
:100C5000FF0188424AD14FF0000B00F00FFA607894
:100C6000032802D0102837D110E0E178A07801EBFA
:100C700000266179207901EB0027F019962800D928
:100C80002BE03946304600F04BF826E0E178A078BA
:100C900001EB00266179207901EB0027F0199628F5
:100CA00000D91AE000250EE0082000EB4500215C89
:100CB000072000EB4500205C01EB00207119174A6A
:100CC00022F811006D1CBD42EED33946304600F0CB
:100CD000ADF94FF0010B00E000BF00BF00F0D0F90C
:100CE000BBF1010F01D1FFF7FFFD10E02078DE28F6
:100CF0000DD1B9F1010F03D14146204601F0F4F9BD
:100D0000B9F1030F03D14146204601F055FABDE881
:100D1000F09F0000F00000201A000020EA0A0020E6
:100D20002DE9F041CCB006460F4600242548027854
:100D30002146641C01A8425403222146641C4254EB
:100D40007806020E2146641C01A8425400251FE0CB
:100D500071191D4A32F81100C11700EB1161C1F37E
:100D600007232146621CD4B201AA53547119164AB2
:100D700032F81100C11700EB11610912A0EB01213B
:100D8000CBB22146621CD4B201AA5354681CC5B22E
:100D9000BD42DDD3214601A8FFF77CFA8046C8F3A7
:100DA00007222046611CCCB201A90A542146601CCE
:100DB000C4B201A800F80180214600F021F94CB02E
:100DC000BDE8F0811A000020EA0A00202DE9F04376
:100DD00089B080460D469146002488480278214615
:100DE000641C0DF8012003222146641C0DF801202B
:100DF0001E222146641C0DF80120002607E018F889
:100E000006202046611CCCB20DF80020761C062E70
:100E1000F5DB2888C11700EB1161C1F307232146D8
:100E2000621CD4B20DF801302888C11700EB1161A3
:100E30000912A0EB0121CBB22146621CD4B20DF8FD
:100E400001306888C11700EB1161C1F30723214607
:100E5000621CD4B20DF801306888C11700EB116133
:100E60000912A0EB0121CBB22146621CD4B20DF8CD
:100E70000130A888C11700EB1161C1F30723214697
:100E8000621CD4B20DF80130A888C11700EB1161C3
:100E90000912A0EB0121CBB22146621CD4B20DF89D
:100EA0000130AA792046611CCCB20DF80020EA7905
:100EB0002046611CCCB20DF800202A7A2046611C25
:100EC000CCB20DF800206A7A2046611CCCB20DF835
:100ED00000206889C11700EB1161C1F30723214687
:100EE000621CD4B20DF801306889C11700EB1161A2
:100EF0000912A0EB0121CBB22146621CD4B20DF83D
:100F000001302A7B2046611CCCB20DF8002020461F
:100F1000611CCCB20DF80090E889C11700EB11619B
:100F2000C1F307232146621CD4B20DF80130E889D1
:100F3000C11700EB11610912A0EB0121CBB22146D0
:100F4000621CD4B20DF801302A7C2046611CCCB260
:100F50000DF800206A7C2046611CCCB20DF8002000
:100F6000688AC11700EB1161C1F307232146621C97
:100F7000D4B20DF80130688AC11700EB1161091273
:100F8000A0EB0121CBB22146621CD4B20DF8013096
:100F90002A7D2046611CCCB20DF80020AA7D204697
:100FA000611CCCB20DF800206A7D2046611CCCB2D9
:100FB0000DF8002000222046611CCCB20DF8002064
:100FC00021466846FFF766F90746C7F30722204621
:100FD000611CCCB20DF80020FAB22046611CCCB2E4
:100FE0000DF800202146684601F0E6F821466846E3
:100FF00001F07AF809B0BDE8F08300001A00002083
:1010000070B504460D4608480068012803D12946FA
:10101000204601F069F804480068032803D12946F6
:10102000204601F0C9F870BDF00000207CB50446F0
:101030000D46114800788DF8000010208DF8010051
:10104000200A8DF80200E0B28DF80300280A8DF81E
:101050000400E8B28DF8050006216846FFF71AF98A
:101060000646300A8DF80600F0B28DF80700082118
:101070006846FFF7C5FF7CBD1A00002070470000DE
:1010800010B50021254A1278254B1A70002011E076
:10109000224B421C33F81220140A0A46491C214BE9
:1010A0009C541E4B421C13F812400A46491C1D4B0F
:1010B0009C54401C0328EBDB184A12891A4B1A80F7
:1010C000164A52895A80154A92899A80134AD289BF
:1010D000120A9A71114A927BDA71104A128A120A24
:1010E0001A720E4A127C5A720C4A528A5A810B4A60
:1010F000928A120A1A74094A127D5A74074AD28ACD
:101100005A82064A128B120A1A75044A127E9A757E
:10111000024A528B120A5A7510BD0000EA0A0020DA
:10112000680000201E0000206602002070B5002428
:1011300000253D48006860B33C484078032804D04F
:10114000102808D0CA2817D110E0374800680828AE
:1011500000D1012411E035484079092101EB40001C
:1011600031490968884200D1012406E02E48006810
:10117000022800D1012400E000BF00BF2C480088F5
:10118000C0F10A0000EB80002A490978884200DC9F
:1011900001242948006860B328484078032804D017
:1011A000102808D0CA2817D110E023480068082862
:1011B00000D1012511E021484079092101EB4000CF
:1011C0001D490968884200D1012506E01A480068D7
:1011D000022800D1012500E000BF00BF14480088AC
:1011E000C0F10A0000EB800015490978884200DC54
:1011F0000125012C0AD101220B4801680B48FFF799
:1012000009FD0020084908600A490870012D0AD12B
:101210000322094801680948FFF7FCFC0020064941
:1012200008600749087070BDA80000209E020020D9
:1012300014000020B4000020B0000020F6040020BC
:10124000B600002000B58BB00121084600F0ECF894
:101250001448FFF747F814480090144801901020F4
:1012600002904FF4167003900020049080200590A7
:1012700000200690079008904FF4805009900020BD
:101280000A9069460748FFF7DCF801220221054869
:10129000FFF7CEF8012280210348001F00F05AFE1C
:1012A0000BB000BD44000240043801401C01002086
:1012B00000B58BB00121084600F0B6F81448FFF7DE
:1012C00011F81448009014480190102002904FF437
:1012D0001670039000200490802005900020069056
:1012E000079008904FF48050099000200A906946BA
:1012F0000748FFF7A6F8012202210548FFF798F8F2
:10130000012280210348001F00F024FE0BB000BD25
:101310001C000240044800401C01002010B5044697
:1013200000210648FEF7D2FF21460448FFF7A7F840
:1013300001210248FEF7CAFF10BD00004400024030
:1013400010B5044600210648FEF7C0FF21460448B8
:10135000FFF795F801210248FEF7B8FF10BD000025
:101360001C00024070B5002100230F22C47804B392
:10137000154C246804F4E064C4F5E064210AC1F16A
:101380000403CA40447804FA03F1847814402143EA
:1013900009010E4C0678A155047804F01F050124BC
:1013A000AC4005786D11AD0005F1E025C5F80041B0
:1013B00009E0047804F01F050124AC40044D0678D0
:1013C000761145F8264070BD0CED00E000E400E029
:1013D00080E100E002490143024A116070470000C9
:1013E0000000FA050CED00E010B5002807DA0A0746
:1013F000140E054A00F00F031B1FD45403E00A0724
:10140000130E024A135410BD18ED00E000E400E092
:1014100001460020034A506820F4404008435060D1
:10142000704700000010024029B1064A5269024389
:10143000044B5A6104E0034A52698243014B5A61EA
:10144000704700000010024029B1064AD2690243E9
:10145000044BDA6104E0034AD2698243014BDA614A
:10146000704700000010024029B1064A1269024389
:10147000044B1A6104E0034A12698243014B1A616A
:10148000704700000010024029B1064A92690243E9
:10149000044B9A6104E0034A92698243014B9A61CA
:1014A000704700000010024029B1064AD26802438A
:1014B000044BDA6004E0034AD2688243014BDA60ED
:1014C000704700000010024010B586B000F030F800
:1014D0004FF4803000F0E8F800F024F90446ACB195
:1014E00000F0DAFB1020FFF79DF90220FFF7A8F9C2
:1014F000002000F0CDF8002000F008F94FF48060E3
:1015000000F0F8F84FF40040FFF782FF01A800F068
:1015100035F801210803FFF7B7FF01218803FFF722
:1015200093FF01217D20FFF7AFFF002006B010BD23
:101530000F48006840F001000D4908600846406807
:101540000C4908400A494860084600680A490840B2
:10155000074908600846006820F4802008600846B3
:10156000406820F4FE0048604FF41F008860704718
:10157000001002400000FFF8FFFFF6FE30B500212A
:101580000022002400232D4D6D6805F00C0121B1CF
:10159000042905D0082923D105E0294D056022E062
:1015A000284D05601FE0254D6D6805F47012234D30
:1015B0006D6805F48034022505EB92421CB9224D7A
:1015C000554305600BE01D4D6D6805F400351DB1F8
:1015D0001B4D5543056002E01A4D5543056002E07E
:1015E000174D056000BF00BF144D6D6805F0F00198
:1015F0000909164D6B5C0568DD4045600F4D6D684F
:1016000005F4E061090A114D6B5C4568DD408560B9
:101610000A4D6D6805F46051C90A0C4D6B5C456854
:10162000DD40C560054D6D6805F44041890B084DEE
:101630006B5CC568B5FBF3F5056130BD0010024079
:1016400000127A000024F40000093D00F40000209C
:101650000401002010B501460022002300204A1199
:10166000012A02D1094C236806E0022A02D1074C64
:10167000236A01E0054C636A01F01F0201249440D3
:101680001C400CB1012000E0002010BD0010024001
:1016900001460020034A506820F0F00008435060E3
:1016A00070470000001002401149096821F48031A0
:1016B0000F4A11601146096821F480211160B0F5CC
:1016C000803F03D0B0F5802F0ED106E008490968AD
:1016D00041F48031064A116007E00549096841F488
:1016E000A021034A116000E000BF00BF7047000066
:1016F0000010024001460020034A506820F4E060D8
:10170000084350607047000000100240014600206E
:10171000034A506820F4605040EAC10050607047AE
:101720000010024038B5002000900024002500BFC2
:101730003120FFF78FFF05460098401C009000986D
:10174000B0F5A06F01D0002DF2D03120FFF782FF5D
:1017500008B1012400E00024204638BD01460020E5
:10176000044A10884FF6C77210400843014A10809F
:10177000704700000030014021B1028842F0400271
:10178000028004E002884FF6BF731A40028070475F
:1017900000B587B0294800F055F80020ADF80800E2
:1017A0004FF48270ADF80A000020ADF80C00ADF8DF
:1017B0000E00ADF810004FF40070ADF812001020CC
:1017C000ADF814000020ADF816000720ADF81800A1
:1017D00002A91A4800F062F8A020ADF80400182011
:1017E0008DF8070003208DF8060001A91448FFF7C3
:1017F00019F94020ADF8040048208DF8070001A930
:101800000F48FFF70FF91020ADF804008DF807001E
:1018100003208DF8060001A90948FFF703F900210C
:10182000064800F059F801210448FFF7A5FF1021F0
:101830000348FFF7D6F9002007B000BD0030014093
:101840000008014010B504461148844208D1012126
:101850008014FFF729FE0021A014FFF725FE16E0F3
:101860000C48844208D101210014FFF7FDFD00213E
:101870002014FFF7F9FD0AE00748844207D101214F
:10188000C013FFF7F1FD0021E013FFF7EDFD10BDE0
:101890000030014000380040003C004010B50022FC
:1018A000028802F441520B884C8823438C882343DE
:1018B000CC8823430C8923434C8923438C892343BD
:1018C000CC8923431A430280838B4FF2FF74234059
:1018D00083830B8A038210BD21B1828842F0040207
:1018E000828004E082884FF6FB731A408280704742
:1018F00070B50546002445F6FF7000F05FF8044619
:10190000C4B90D48006940F002000B49086108465F
:101910004561006940F04000086145F6FF7000F045
:101920004DF80446012C05D00348006920F0020060
:1019300001490861204670BD002002400948C16885
:1019400001F0010008B10120704701F0040008B166
:101950000220F9E701F0100008B10320F4E70020AD
:10196000F2E70000002002400348006940F08000D8
:1019700001490861704700000020024030B503466D
:101980000C461546002207E0184600F008F824F837
:1019900012009B1C501C82B2AA42F5DB30BD0146EE
:1019A0000888704702480349486003484860704708
:1019B0002301674500200240AB89EFCD70B5044696
:1019C00000BFFFF7BBFF0546012D00D006E0012058
:1019D00000F010FD601E84B2002CF2D100BF04B9EB
:1019E000FF25284670BD00002DE9F05F80468A463D
:1019F0001746B8F1006F02D33348804501D3BDE8E4
:101A0000F09FFFF7CFFFA8F1006B4FEA9B25CBF3C8
:101A10004809C9F50074A74200DC3C464EE04FF08F
:101A2000006101EB85208A142849FFF7A7FF0026F3
:101A30000BE009EB0600254931F810004FF6FF7165
:101A4000884200D003E0701C86B2A642F1DB00BFE2
:101A5000A6421BDA4FF0006101EB8520FFF748FF3B
:101A6000002608E03AF8160006EB0901174A22F8AA
:101A70001100701C86B2A642F4DB4FF0006101EB4E
:101A800085208A14114900F043F804E022465146AB
:101A9000404600F03DF8A74200D110E06D1C4FF029
:101AA00000090AEB440A08EB4408381B87B2B7F573
:101AB000007F02DD4FF4007400E03C46AFE700BF5A
:101AC000FFF752FF00BF9AE700000108EA06002076
:101AD00070B505460E46FF20FFF770FF044694B927
:101AE0000A48006940F00100084908612E80FF2083
:101AF000FFF764FF0446012C05D00448006920F07C
:101B0000010002490861204670BD0000002002402B
:101B10002DE9F04105460E461746002407E036F849
:101B200014102846FFF7D4FFAD1C601C84B2BC42E1
:101B3000F5DBBDE8F08110B500F002F810BD000043
:101B40000CB50020019000903348006840F48030CC
:101B50003149086000BF3048006800F40030009050
:101B60000198401C0190009818B90198B0F5A06F39
:101B7000F1D12948006800F4003010B10120009034
:101B800001E0002000900098012843D1234800681C
:101B900040F01000214908600846006820F003006A
:101BA00008600846006840F0020008601A48406873
:101BB000194948600846406848600846406840F453
:101BC000806048600846406820F47C104860084601
:101BD000406840F4F81048600846006840F08070A3
:101BE000086000BF0C48006800F000700028F9D0C1
:101BF0000948406820F003000749486008464068EB
:101C000040F00200486000BF0348406800F00C004C
:101C10000828F9D10CBD000000100240002002404D
:101C200010B5134800684FF47A71B0FBF1F4B4F1C9
:101C3000807F01D3012011E024F07F40401E4FF04F
:101C4000E02148610F214FF0FF30FFF7CDFB00206E
:101C50004FF0E021886107200861002008B100BF33
:101C6000FEE70521881FFFF7BFFB002010BD000025
:101C70000801002006480068401C05490860054826
:101C80000068401C0349086008460068704700006F
:101C90008C0000209000002010B51348006840F030
:101CA00001001149086008464068104908400E4983
:101CB0004860084600680E4908400B49086008461D
:101CC000006820F4802008600846406820F4FE0088
:101CD00048604FF41F008860FFF72DFF4FF0006051
:101CE0000449086010BD0000001002400000FFF829
:101CF000FFFFF6FE08ED00E010B50121114800F0ED
:101D000068F8F0B101210F4800F054F80E4800784F
:101D1000C82804DC0C480078401C0B4908700B48AC
:101D20000078C82804DC09480078401C074908707E
:101D300007480078C82804DC05480078401C04499E
:101D4000087010BD00040040B4000020B500002061
:101D5000B60000207FB505460C4601210220FFF7A2
:101D600073FBADF80850ADF804400020ADF80A0050
:101D7000ADF8060001A90E4800F046F80122114610
:101D80000B4800F037F81D208DF8000000208DF87A
:101D9000010003208DF8020001208DF80300684641
:101DA000FFF7E0FA0121024800F007F87FBD0000CC
:101DB00000040040CA430282704721B1028842F009
:101DC0000102028004E002884FF6FE731A4002808E
:101DD000704730B50246002000230024158A05EA2A
:101DE0000103958905EA010413B10CB1012000E05B
:101DF000002030BD1AB183890B43838102E08389BF
:101E00008B43838170470000002202881D4B98425B
:101E10000ED01D4B98420BD0B0F1804F08D01B4B19
:101E2000984205D01A4B984202D01A4B984204D1DE
:101E30004FF68F731A404B881A43174B984207D0BE
:101E4000164B984204D04FF6FF431A40CB881A43F2
:101E500002808B8883850B8803850A4B98420BD0C0
:101E6000094B984208D00E4B984205D00D4B984232
:101E700002D00D4B984201D10B7A03860123838255
:101E800070470000002C0140003401400004004075
:101E900000080040000C004000100040001400400A
:101EA00000400140004401400048014010B540F2AC
:101EB00025510C4800F057F898B100200A490870E5
:101EC000084800F00BF90949094A12688854084883
:101ED0000068B0F5967F04D205480068401C0449AC
:101EE000086010BD00380140B40000209E020020B0
:101EF000A800002010B540F225510C4800F033F83E
:101F000098B100200A490870084800F0E7F809492C
:101F1000094A1268885408480068B0F5967F04D2D0
:101F200005480068401C0449086010BD0048004096
:101F3000B6000020F6040020B000002021B1828904
:101F400042F40052828104E082894DF6FF731A4008
:101F5000828170471AB1838A0B43838202E0838AAD
:101F60008B438382704770B502460024002300250E
:101F7000002040F66A16B14200D100BFC1F34215FD
:101F800001F01F03012606FA03F3012D02D1968901
:101F9000334006E0022D02D1168A334001E0968AD2
:101FA00033400C12012606FA04F41688344013B1AB
:101FB0000CB1012000E0002070BDF0B50346002404
:101FC00000260025002040F66A17B94200D100BF64
:101FD0001846C1F3421401F01F06012707FA06F55F
:101FE000012C01D10C3004E0022C01D1103000E0B2
:101FF00014301AB107682F43076002E00768AF4347
:102000000760F0BD2DE9F04786B005460E46002476
:10201000A24600BFA1460027B08900B100BF2F46ED
:102020002C8A4CF6FF700440F08804432C82AC8963
:102030004EF6F3100440B088318908437189084393
:102040000443AC81AC8A4FF6FF400440B08904439E
:10205000AC8201A8FFF792FA1F48874202D1DDF84F
:1020600010A001E0DDF80CA0A88900F4004040B108
:102070000AEBCA0000EB0A1031684900B0FBF1F826
:1020800007E00AEBCA0000EB0A1031688900B0FBD8
:10209000F1F86420B8FBF0F004012009642101FB91
:1020A0001089A88900F4004040B1322000EBC9003B
:1020B000B0FBF1F000F00700044308E0322000EB31
:1020C00009106421B0FBF1F000F00F0004432C81F3
:1020D00006B0BDE8F087000000380140014688885E
:1020E000C0F308007047000070B506460D46002496
:1020F00003E0305D04490855641CAC42F9D3A8B232
:10210000FFF70CF970BD00001C01002010B586B06F
:10211000044601210820FFF7B7F901218804FFF7E1
:1021200093F94FF40060ADF8000028208DF803000B
:1021300069461F48FEF776FC4FF48060ADF800005A
:1021400003208DF8020018208DF803006946184816
:10215000FEF768FC02940020ADF80C00ADF80E000C
:10216000ADF81000ADF814000C20ADF8120002A973
:102170001048FFF747FF4FF4E060FFF72BF92720E7
:102180008DF8040000208DF8060001208DF807006E
:1021900001A8FFF7E7F8012240F225510548FFF7B3
:1021A0000CFF01210348FFF7C9FE06B010BD000077
:1021B000000C01400048004070B506460D46002462
:1021C00003E0305D04490855641CAC42F9D3A8B261
:1021D000FFF7B6F870BD00001C01002002E008C83F
:1021E000121F08C1002AFAD170477047002001E091
:1021F00001C1121F002AFBD1704738B504466D207B
:1022000000906B46012240F606012E2000F07DFC76
:102210003CB140F2076241F606012E2000F04AFC74
:1022200006E041F2076241F606012E2000F042FC72
:1022300038BD38B504466B4602220021362000F036
:1022400021FB0E2C57D2DFE804F011071A56565620
:1022500056233256563F464D00208DF800009DF81B
:10226000010000F0FE008DF8010045E09DF800003F
:1022700000F0FC0040F001008DF800003CE09DF80B
:10228000000000F0FC0040F002008DF8000033E098
:102290009DF8000000F0B30040F048008DF8000009
:1022A0009DF8010040F080008DF8010024E09DF8C9
:1022B000000000F0B3008DF800009DF8010000F070
:1022C0007F008DF8010017E09DF8010040F002004A
:1022D0008DF8010010E09DF8010000F0FD008DF880
:1022E000010009E09DF8000000F0CF0040F0200060
:1022F0008DF8000000E000BF00BF6B460122002106
:10230000362000F002FC0DF10103012211463620B7
:1023100000F0FBFB38BD08B503208DF8010001205B
:102320008DF800006B4602220021362000F0EDFB04
:102330004FF4004206212D2000F0BCFB012000F0EC
:102340002BF80120FFF775FF08BD38B50446200AB9
:102350008DF80100E0B28DF800006B4602220421E6
:102360002D2000F0D2FB03208DF800006B460122E7
:1023700006212D2000F0C9FB00208DF800006B46DF
:10238000012206212D2000F0C0FB0A212D2000F0A3
:1023900057FA0546284638BD70B5044600F068FC7B
:1023A000051900BF00F064FC401B0028FADD70BD79
:1023B000014651B117200122824043099B0003F1DD
:1023C000E023C3F8002100BF00BF704710B51720FD
:1023D000FEF71AFA044644B1172001218140044A4D
:1023E000430942F8231000BF00BF204610BD000083
:1023F00080E100E001460D4A12784A434FF0E023A5
:102400005A6100229A6101221A6100BF4FF0E02256
:10241000106900F001021AB100F48032002AF5D0F0
:1024200000224FF0E0231A619A617047D00000202B
:102430002DE9F84F04464FF00009CA462578607927
:10244000824931F810806078401E8149C6B2086325
:10245000042D01D0072D01D1012000E0002083468A
:1024600020787B490873E07938B90846806940F4E0
:10247000800088614FEAE80805E07548806920F42B
:10248000800073498861207A7149487308468069E1
:10249000217A4FF4403202EA014108436C498861D5
:1024A000084600218269042000F017FB424642F6EC
:1024B00004012E2000F0FEFA3046FFF79EFE65482C
:1024C000405D00EB800064494318052207212B2062
:1024D00000F01BFB614800EB0B0301220B212820BD
:1024E00000F013FB5B48405D5D4951F820200C2152
:1024F000282000F0F2FAE0795A4901EB8000A17936
:1025000030F811200221272000F0D4FA564830F884
:1025100016200421272000F0CDFAE07928B96422A2
:102520000621272000F0C6FA1EE0A07804280DD16D
:102530001020009010220621272000F0BBFA6B46E5
:1025400001222621272000F0E0FA0DE0282000904B
:1025500020220621272000F0ADFA6B460122262119
:10256000272000F0D2FA00BF404800EB0610E178C7
:1025700050F821200821272000F0AFFAB4F8090014
:1025800018B941F24100A4F80900B4F8092020214B
:10259000272000F08FFA36480C210268232000F033
:1025A0009CFA3348001D30F816200421232000F047
:1025B00081FAA07958B1E0792E494318012200210F
:1025C000212000F0A2FA4FF003094FF0010A05F0B4
:1025D0000F00F02101EA0511084361784FF4402211
:1025E00002EA81410843910001EA095108434FF48E
:1025F000003101EA4A41084321794FF0F86202EACA
:10260000815108436179520102EAC16140EA010740
:102610003A4600211F2000F060FAA0786178084354
:1026200000040B49086108460069E1794FF4004253
:1026300042EA41310843064908610846002102691F
:10264000082000F04AFA0020BDE8F88F0C3100089D
:10265000180C002090300008B0300008CE30000880
:1026600098300008DC300008E8300008EC30000842
:10267000D0300008D830000870B505460421362057
:1026800000F0DEF8044615B144F4006401E024F4DF
:10269000006422460421362000F01FFA70BD0000BD
:1026A00038B54020009000210E2000F0C9F8054602
:1026B000FFF78CFE0446002211460E2000F00DFAB2
:1026C0006B46012200210D2000F01FFA094A00216B
:1026D0000F2000F002FA00F0D1F92A4600210E2066
:1026E00000F0FBF92046FFF763FE0020024981F865
:1026F0002C0038BDF8FF2724180C00202DE9FC41E0
:102700000446042001900025002700203F49487519
:10271000086300213D4880F8251000203B4981F8DE
:102720002C0088834863886300F0A6F83749086066
:10273000084600683649884202D08817BDE8FC8107
:102740000020FFF776FD4FF01F3200211E2000F021
:10275000C4F901AB01220021242000F0D6F91E208B
:10276000FFF7F3FD85B2280A284988730420FFF794
:10277000ECFD0746F8B270B1022000906B460122D2
:1027800012212D2000F0C1F92048808B40F48050A8
:102790001E49888300BF0620FFF7D7FD1B4948600C
:1027A0000720FFF7D2FD1949886005F01F00087562
:1027B0000846007D08B9102008751449087D00F00E
:1027C000FDF904F0010040B1FFF7A5FD0F48808B33
:1027D00040F400600D4988830DE00521362000F0AB
:1027E00019F806464FF6FF500640324605213620BE
:1027F00000F060F900BF0120FFF71BFD002104205D
:1028000000F01EF801498861002097E7180C0020AD
:102810003001CADEF8B504460D464FF6FF76A9B280
:10282000A0B26B46022200F02DF8074637B99DF89A
:1028300000009DF8011000EB012086B23046F8BD83
:102840002DE9F84305460E464FF0FF37B1B2A8B266
:102850006B46042200F016F88046B8F1000F08D14C
:10286000032404E01DF8040000EB0727641E002C7D
:10287000F8DA3846BDE8F88310B500210846FFF7BE
:10288000DFFF10BD2DE9F84306460C461746984673
:1028900000252CB9F2B228466D1C0DF800201BE073
:1028A000F0B240F0400228466D1C0DF800207F2C4D
:1028B00005DCE2B228466D1C0DF800200CE0E0B209
:1028C00040F0800228466D1C0DF80020C4F3C712AA
:1028D00028466D1C0DF80020A8B243463A466946CA
:1028E00000F0CCF9BDE8F88370B504460D461646F5
:1028F00023462A4631461120FFF7C4FF70BD38B584
:1029000004460020009000F0B9F84FF480750CB137
:1029100045F400752A4600210D2000F0CBF8B4B133
:102920006B46012203210F20FFF7ACFF9DF800004A
:1029300000F0080058B1FFF7B3FE4FF480752A4647
:1029400000210D2000F0B6F84FF0FF3038BD002018
:10295000FCE710B50446224641F604012E2000F0A3
:10296000A9F810BD38B504466B46012203210420A6
:10297000FFF788FF002C16DD224600210C2000F016
:1029800099F89DF8000040F0100000900F48806911
:1029900040F080500D4988616B46012203210420DC
:1029A00000F0B3F810E09DF8000020F01000009057
:1029B0000648806920F08050044988616B460122F6
:1029C0000321042000F0A1F838BD0000180C0020FD
:1029D00010B5044622460021182000F06BF810BD07
:1029E000F8B50446002500200090002604F00200FF
:1029F00058B1802000906B46012200210D2000F08C
:102A000084F801201C4981F82C0004F0010028B34F
:102A10009DF8000040F0060000906B460122002166
:102A20000D2000F072F803210F20FFF7F3FE064699
:102A300006F4816008B900251BE0402000906B4639
:102A4000012200210D2000F060F80020FFF714FEA5
:102A50000020094981F82C00451E0AE09DF800007D
:102A600040F0020000906B46012200210D2000F092
:102A70004CF82846F8BD0000180C00201CB501AB2E
:102A8000012203210F20FFF7FDFE9DF8040000F056
:102A900080009DF8041001F04001B0EB410F08D018
:102AA000012000906B46012203210D2000F02DF83B
:102AB00000BF1CBDF8B505460E461446E0B28DF8C1
:102AC000000020128DF80100B1B2A8B26B460222BC
:102AD00000F01BF807463846F8BD2DE9F8430646D6
:102AE0000F461446002504E0E0B20DF80500240A64
:102AF0006D1C042DF8DBB9B2B0B26B46042200F0B5
:102B000004F880464046BDE8F8832DE9F8430646C0
:102B10000C461746984600253CB9F0B240F08002BA
:102B200028466D1C0DF800201BE0F0B240F0C002FA
:102B300028466D1C0DF800207F2C05DCE2B22846EB
:102B40006D1C0DF800200CE0E0B240F08002284639
:102B50006D1C0DF80020C4F3C71228466D1C0DF83B
:102B60000020A8B243463A46694600F053F9BDE852
:102B7000F88370B504460E4615462819B0F5806FE7
:102B800002DD4FF0FF3070BDA21E334629460920FA
:102B9000FFF7BBFF0020F6E770B504460D46064878
:102BA0000069204340EA8556324600210820FFF79D
:102BB00094FF002070BD0000180C002038B50446BA
:102BC0006B4601220E212B20FFF75CFE9DF80000D2
:102BD00020F01F00009004F01F009DF80010084333
:102BE00000906B4601220E212B20FFF78EFF38BD8F
:102BF00000F01AF8FDF7EEFDFDF7B8FA10E0FEF769
:102C000095FA08480078012803D006480078022881
:102C100004D104480078FDF733FD01E0FDF732FCF4
:102C2000EDE700006800002010B5FEF74DFCFDF751
:102C300083FEFEF7F5FF00F087F8FDF70DFE0A4969
:102C40000A4A128851F8220000F090F84FF4E1305F
:102C5000FFF75CFAFEF7F6FAFEF72AFB40F60F6183
:102C60000120FFF777F810BD280000201400002095
:102C700001480068704700008C0000202DE9F047F3
:102C800006460F4690461D460024FFF79FFB8146EF
:102C900010201849086000BF0DE0385D1649888192
:102CA00000BF1548008900F001000028F9D0124843
:102CB00080892870641CB442EFDB00240DE0002002
:102CC0000D49888100BF0C48008900F001000028F0
:102CD000F9D0094880892855641C4445EFD3102059
:102CE0000449091F08604846FFF762FB0020BDE861
:102CF000F0870000140801400030014008B50420AE
:102D0000ADF8000010208DF8030003208DF80200BC
:102D100069460C48FDF786FE04210A48FDF75FFF6F
:102D20000420ADF8000000208DF8030003208DF88A
:102D3000020069460348FDF775FE0220FFF72CFBF1
:102D400008BD00000008014010B5FEF721FD0A2073
:102D5000FFF722FB10BD00B50820FEF7FFFC00BD09
:102D600000B52020FEF7FAFC00BD000010B586B0CB
:102D7000044602940020ADF80C00ADF80E00ADF84A
:102D80001000ADF814000C20ADF812000121052050
:102D9000FEF77AFB01218803FEF776FB18208DF8F9
:102DA00007004FF40070ADF8040003208DF8060012
:102DB00001A91648FDF736FE28208DF807004FF4CC
:102DC0008060ADF8040001A91048FDF72BFE02A9B0
:102DD0000F48FFF717F925208DF8000003208DF824
:102DE00001008DF8020001208DF803006846FEF70F
:102DF000B9FA012240F225510548FFF7DEF801211A
:102E00000348FFF79BF806B010BD00000008014022
:102E1000003801402DE9F04705460E461746984612
:102E20000024FFF7D3FA814610201749086000BF3D
:102E30000CE0305D1549888100BF1448008900F01E
:102E400001000028F9D011488089641CAC42F0DBF5
:102E500000240DE018F804000C49888100BF0B48DD
:102E6000008900F001000028F9D008488089641C1E
:102E7000BC42EFD310200449091F08604846FFF701
:102E800097FA0020BDE8F0871408014000300140A7
:102E900000C1814001C0804101C0804100C181402A
:102EA00001C0804100C1814000C1814001C080411A
:102EB00001C0804100C1814000C1814001C080410A
:102EC00000C1814001C0804101C0804100C18140FA
:102ED00001C0804100C1814000C1814001C08041EA
:102EE00000C1814001C0804101C0804100C18140DA
:102EF00000C1814001C0804101C0804100C18140CA
:102F000001C0804100C1814000C1814001C08041B9
:102F100001C0804100C1814000C1814001C08041A9
:102F200000C1814001C0804101C0804100C1814099
:102F300000C1814001C0804101C0804100C1814089
:102F400001C0804100C1814000C1814001C0804179
:102F500000C1814001C0804101C0804100C1814069
:102F600001C0804100C1814000C1814001C0804159
:102F700001C0804100C1814000C1814001C0804149
:102F800000C1814001C0804101C0804100C1814039
:102F900000C0C101C30302C2C60607C705C5C404F9
:102FA000CC0C0DCD0FCFCE0E0ACACB0BC90908C869
:102FB000D81819D91BDBDA1A1EDEDF1FDD1D1CDC59
:102FC00014D4D515D71716D6D21213D311D1D010C9
:102FD000F03031F133F3F23236F6F737F53534F4B9
:102FE0003CFCFD3DFF3F3EFEFA3A3BFB39F9F83829
:102FF00028E8E929EB2B2AEAEE2E2FEF2DEDEC2C19
:10300000E42425E527E7E62622E2E323E12120E088
:10301000A06061A163A3A26266A6A767A56564A478
:103020006CACAD6DAF6F6EAEAA6A6BAB69A9A868E8
:1030300078B8B979BB7B7ABABE7E7FBF7DBDBC7CD8
:10304000B47475B577B7B67672B2B373B17170B048
:103050005090915193535292965657975595945438
:103060009C5C5D9D5F9F9E5E5A9A9B5B99595898A8
:10307000884849894B8B8A4A4E8E8F4F8D4D4C8C98
:103080004484854587474686824243834181804008
:103090000000010203040005405C0000A05C040085
:1030A000C06C0800805C0400E03F1E00E07D1E0054
:1030B000070400091E0805400826091040085608A4
:1030C000054008261D040008BE1D040008BED8BC2B
:1030D00007A9022570889B88401008000A00160086
:1030E000010006000100020087008D002D001A314A
:1030F00052001A339A001A351D011A376B003B3102
:10310000BE003B335E013B3596023B3700009959C8
:103110009959EB518F421E45142E0080EB51F52832
:103120003333E13A703DE13AC235852BC235333352
:10313000C235C235AE47E13A5138A33051380000AC
:1031400060310008000000201C010000DC210008A4
:103150007C3200081C0100203C0F0000EC2100081C
:10316000020214000909010200411000C20000001F
:10317000C1C1C1C107000100000001000000000042
:103180000000000000000000C012000080250000C8
:1031900040380000004B000000960000C0DA00003C
:1031A00000E1000000C2010000F4010000E803009B
:1031B0000100000002000000030000000400000005
:1031C00005000000070000000000000000000000F3
:1031D00000000000000000000000000000000000EF
:1031E00000000000000000000000000000000000DF
:1031F0000000000002021400090901020041100051
:10320000C2000000C1C1C1C10000000000000000F8
:103210000000000000000000000000000202140096
:103220000909010200411000C2000000C1C1C1C172
:103230000000000002021400090901020041100010
:10324000C2000000C1C1C1C1FF0030313201020320
:10325000000000000000000001020304010203045A
:10326000060708090204060800A24A04000000003C
:0C3270000000000001020304060708092A
:04000005080000ED02
:00000001FF
