:020000040002F8
:1060000058C10020DD630200E5630200E76302007F
:10601000E9630200EB630200ED6302000000000090
:10602000000000000000000000000000EF6302001C
:10603000F163020000000000F3630200F563020058
:10604000ADED0200F7630200650E03001D020300C0
:10605000F7630200F7630200FDA20200F76302008B
:10606000F76302004D09030065090300F7630200AE
:10607000F7630200F7630200F7630200F7630200B0
:10608000F763020065FA0200F7630200F76302009B
:10609000F7630200F7630200D1020300F763020016
:1060A000F7630200F7630200F7630200F763020080
:1060B000F7630200F7630200000000000000000028
:1060C000F7630200F7630200F7630200F763020060
:1060D000F7630200F7630200F763020000000000AC
:1060E00000000000000000000000000000000000B0
:1060F00000000000000000000000000000000000A0
:10610000000000000000000000000000000000008F
:10611000000000000000000000000000000000007F
:10612000000000000000000000000000000000006F
:10613000000000000000000000000000000000005F
:10614000000000000000000000000000000000004F
:10615000000000000000000000000000000000003F
:10616000000000000000000000000000000000002F
:10617000000000000000000000000000000000001F
:10618000000000000000000000000000000000000F
:1061900000000000000000000000000000000000FF
:1061A00000000000000000000000000000000000EF
:1061B00000000000000000000000000000000000DF
:1061C00000000000000000000000000000000000CF
:1061D00000000000000000000000000000000000BF
:1061E00000000000000000000000000000000000AF
:1061F000000000000000000000000000000000009F
:10620000DFF80CD000F006FD00480047E1970300DE
:1062100058C1002000B583B002900091019244F271
:10622000010071466A460CF023FF03B000BD000078
:1062300030B450E8012F93B2C48923448489A34227
:1062400028BF1B1B0489A34202BFBFF32F8F00206E
:1062500007E0C3EA020340E80134002CE9D14FF023
:1062600001000A6030BC704750E8012FC2EA0242C8
:1062700040E801210029F7D1704730B450E8022FDF
:106280001FFAA2F3C488A34202BFBFF32F8F0020DE
:106290000DE0C48923448489A34228BF1B1BC2EAA2
:1062A000034340E80234002CE8D14FF001000A60BB
:1062B00030BC704750E8022FC2EA224240E8022177
:1062C0000029F7D17047034653E8022FD988B2EB73
:1062D000324F4FF0000017BF92B241EA014142EA4B
:1062E000014104E05A68B2EB324F08BF012043E895
:1062F0000212002AE8D1704730B4044654E8000F77
:106300000D4644E80053002BF8D1156030BC7047AF
:1063100030B4044654E8000F40EA010544E8005355
:10632000002BF7D1156030BC704730B4044654E8F8
:10633000000F00EA010544E80053002BF7D1156077
:1063400030BC704730B4044654E8000F80EA0105C1
:1063500044E80053002BF7D1156030BC704730B4CF
:10636000044654E8000F00EB010544E80053002BFD
:10637000F7D1156030BC704730B4044654E8000FC4
:10638000A0EB010544E80053002BF7D1156030BCA9
:10639000704770B404464FF0000054E8006F0D6879
:1063A000AE4207BF44E80023012044E800630E60CA
:1063B000002B1CBF0020F0E770BC704730B40446CF
:1063C00054E8000F88422CBF451A054644E80053A4
:1063D000002BF5D1156030BC70470000064880479F
:1063E00006480047FEE7FEE7FEE7FEE7FEE7FEE7BA
:1063F000FEE7FEE7FEE7FEE7ED06030001620200AE
:10640000202A04DB203A00FA02F100207047914074
:10641000C2F1200320FA03F3194390407047202A69
:1064200004DB203A21FA02F00021704721FA02F33E
:10643000D040C2F120029140084319467047000045
:1064400000487047FC5E040040EA01039B0703D04C
:1064500009E008C9121F08C0042AFAD203E011F8A3
:10646000013B00F8013B521EF9D27047D2B201E065
:1064700000F8012B491EFBD270470022F6E710B549
:1064800013460A4604461946FFF7F0FF204610BDA2
:10649000421E12F8013F002BFBD111F8013B02F81C
:1064A000013B002BF9D17047421C10F8011B002959
:1064B000FBD1801A704730B504460020034600E047
:1064C0005B1C934203D2E05CCD5C401BF8D030BD36
:1064D000034611F8012B00F8012B002AF9D11846C8
:1064E00070472DE9FE4F804681EA0300C00F0C463D
:1064F000009021F0004123F00045B8EB0200A941D3
:1065000005D24046214690461C460B46024623F0E3
:106510000040104347D0270DC7F30A00C3F30A51C8
:106520000290401A019040286BDAC3F3130040F444
:10653000801B0098924620B10023D2EB030A63EB44
:106540000B0B01985946C0F140025046FFF758FF27
:1065500006460D4650465946019A00F03AFA10EBAD
:1065600008006141002487EA115284EAE7731A4364
:1065700040D0009A62B3019A012A4FEA075215DC13
:10658000001B61EB02014FF0004202EA0752CDE925
:106590000042001C41F5801132462B4600F071FA92
:1065A00003B0BDE8F08F40462146F9E7001B61EBE0
:1065B0000201001C41F5801300185B412018A2F570
:1065C000001747EB030140EAD570B6196D4111E0A1
:1065D0006D084FEA360645EAC0754FEA0752001BC0
:1065E00061EB0201001C41F5801149084FEA3000BF
:1065F0000019514132462B4603B0BDE8F04F00F080
:1066000031BA0098012240000023D0EB020263EB74
:10661000E073009821464FEAE074B8EB000061EBAC
:106620000401E9E783F000435BE781F0004158E7AC
:106630002DE9FE4F81EA030404F0004421F00041FB
:1066400000944FF0000B23F0004350EA01045ED0A9
:1066500052EA03045BD0C3F30A54C1F30A552C4435
:10666000A4F2F3340194A0FB0254C1F3130141F4EA
:106670008011C3F3130343F4801301FB024400FBB6
:10668000034E840A970A44EA815447EA8357A4FBDD
:10669000076802958D0A05FB07854FEA932C04FBDA
:1066A0000C542705029D4FEA065847EA1637B5EB0A
:1066B00008056EEB070C870E920E47EA811742EA37
:1066C0008312A7FB0201B6EB0B0164EB00042B0D58
:1066D00043EA0C335E1844EB1C50DA465146E7FBA4
:1066E0000201C5F313044FEA0B3343EA14534FEA94
:1066F0000432019C43EA0603A4F10C040294009CBA
:10670000CDE900B400F0BDF903B0BDE8F08F002082
:106710000146F9E72DE9F04D81EA030404F0004B4E
:1067200021F0004514464FF0000A23F0004150EAE2
:10673000050220D054EA01021DD0C5F30A570246D3
:10674000C5F31303C1F31300C1F30A5640F48015D7
:1067500043F48013A7EB0608101BD64608F2FD3859
:1067600073EB050002D308F1010801E092185B41C8
:10677000B8F1000F03DA00200146BDE8F08D0020DB
:106780004FF48011064684460EE0171B73EB050795
:1067900005D3121B63EB050306434CEA010C4908C1
:1067A0004FEA300092185B4150EA0107EDD152EAFE
:1067B000030012D082EA040083EA0501084305D0F1
:1067C000101BAB4106D20122002306E000224FF04D
:1067D000004302E06FF0010253101AEB06004CEB8D
:1067E000085110EB0A0041EB0B01BDE8F04D00F041
:1067F00039B90EB540F2334102910021CDE90011C3
:106800000A460B4600F03DF903B000BD3EB5CA177D
:10681000CB0F002450405140C0186141DA0740F2CC
:1068200033430094CDE901232246234600F029F9A1
:1068300003B030BDC1F30A5210B5C1F3130140F2E9
:10684000FF3341F480119A4201DA002010BD40F27A
:1068500033439A42A2F2334203DC5242FFF7DFFD98
:1068600010BD904010BD70B5C1F30A5201F0004553
:106870000024C1F3130140F2FF3341F480119A4226
:1068800002DA0020014670BD40F233439A42A2F280
:10689000334203DC5242FFF7C2FD01E0FFF7B0FDD7
:1068A0002C43F0D00023D0EB030063EB010170BD5B
:1068B00000F0004230F000400AD0C10D01F56071D7
:1068C000C0F3160042EA0151C20840071143704765
:1068D000002001467047000030B5041E71F100042D
:1068E00004DB4FF00044404264EB0101141E73F1DD
:1068F000000405DB1C464FF00043524263EB0403E7
:106900008B4208BF824230BD30B5041E71F10004D5
:1069100004DB4FF00044404264EB0101141E73F1AC
:10692000000405DB1C464FF00043524263EB0403B6
:10693000994208BF904230BD01F0004330B421F0CD
:10694000004150EA010206D00A0DA2F56072C1F3BF
:106950001301002A02DC30BC00207047440F44EAD7
:10696000C104C100E01830BC00EBC25000F043B8D5
:106970002DE9F05F0546002092469B468846064674
:10698000814640241BE02846414647462246FFF701
:1069900046FD53465A46C01A914110D31146184637
:1069A0002246FFF72DFD2D1A67EB01084F462246C0
:1069B00001200021FFF724FD17EB00094E41201EA6
:1069C000A4F10104DFDC484631462A464346BDE8CF
:1069D000F09F202A06DBCB17203A41FA02F043EA67
:1069E000E07306E041FA02F3D040C2F12002914088
:1069F0000843194670470029A8BF7047401C49004A
:106A000008BF20F00100704710B4B0FA80FC00FA13
:106A10000CF050EA010404BF10BC704749B1CCF13E
:106A2000200421FA04F411FA0CF118BF01212143CA
:106A30000843A3EB0C01CB1D4FEA00614FEA102085
:106A400042BF002010BC704700EBC3501044002927
:106A5000A4BF10BC7047401C490008BF20F00100D3
:106A600010BC704710B5141E73F1000408DA401C06
:106A700041F1000192185B411A4301D120F001005D
:106A800010BD2DE9F04D92469B4611B1B1FA81F24D
:106A900002E0B0FA80F220329046FFF7B1FC0446E3
:106AA0000F4640EA0A0041EA0B0153465A460843A2
:106AB00013D0114653EA010019D0C8F140025046E4
:106AC000FFF7ADFC05460E46504659464246FFF7D5
:106AD00097FC084305D0012004E020463946BDE874
:106AE000F08D0020054346EAE0762C4337430A98B0
:106AF0006305E40AA0EB08000022FD0A44EA4754BB
:106B00000A3002D500200146E9E701051019694164
:106B1000DDE9084500196941BDE8F04DA2E770B50F
:106B200021F0004303430CD0C1F30A550024D5EBF8
:106B3000040564EB0403D617AD1AB34102DB002051
:106B4000014670BD201841EB025170BD2DE9F04D9A
:106B500000231A461B1A8A4103DB00200146BDE8C8
:106B6000F08DC1F30A52C1F3130141F480154FF0C7
:106B7000000BD10702D100186D41521E00270446B8
:106B800040F2FF11384601EB620A3E46804602465B
:106B900000204FF48011FFF742FCC2197141BB186D
:106BA00046EB0100B4EB030C75EB000C04D3E41AC4
:106BB00065EB000517460E46241908F101006D41EA
:106BC00080463428E3DDF91946EB0600091BA8418D
:106BD00003D24FF0FF32134601E0002213461BEBB5
:106BE000070046EB0A51BDE8F04DFFF73BBF0EB57D
:106BF000C10F80EAE0700844CA07002140F2334325
:106C00008DE80E000A460B46FFF73BFF03B000BDC0
:106C100000207047064C074D06E0E06840F0010395
:106C200094E8070098471034AC42F6D3FFF7ECFA2B
:106C3000787A0400987A040070B58C1810F8015B1B
:106C400015F0070301D110F8013B2A1106D110F805
:106C5000012B03E010F8016B01F8016B5B1EF9D109
:106C60002B0705D40023521E0DD401F8013BFAE78F
:106C700010F8013BCB1A921C03E013F8015B01F8FA
:106C8000015B521EF9D5A142D8D3002070BD4360EC
:106C900042800180704700002DE9F04F8BB0B0F8C2
:106CA00002E0B0F800B0F34540F052810B88FD22BD
:106CB0009B4540F04E814F88BB4240F04A81476877
:106CC000BBF1000F00F02C814C686FF003000097BF
:106CD00000274FF07E595E46CDF81CE000EB8B0894
:106CE00020460694BBEB060008D0B9002046FFF70B
:106CF000C4FB0020013004348742FBD104F1040AB4
:106D0000751EC4F800900FD0A8EB87015046FFF71E
:106D1000B4FB0120544600BF013004348642FBD14D
:106D20000137002D2E46DDD1009FDDF81CE0BBF1C0
:106D3000000F00F0F580042039469FED8A0A07EB2A
:106D40008E0C3B1D4FEA8E05ABF101047746CDF862
:106D500014B000EB8E0089460190CEF1000008903F
:106D6000002000BF584580F0F880069A00FB0EF125
:106D70006646B0EE403A02EB810209EB810191EDEB
:106D8000001A099121460A92B0EE414A07E000BF7D
:106D900096ED004A72190139B0EE423A1646B5EE48
:106DA000C04AF1EE10FA09DDB4EEC34AB0EE442A4F
:106DB000F1EE10FAD8BFB0EE432A08E0B1EE442A53
:106DC000B4EEC23AF1EE10FA01DBB0EE432A00292C
:106DD000DED1B5EE402AF1EE10FA00F0BE80B0EE42
:106DE000C13AB4EE423AF1EE10FA1CBFC14311EBC6
:106DF0000B0104D0002100BF01318C42FCD1B5EE63
:106E0000401AF1EE10FA00F0A880CDE9034CAEEB89
:106E1000000C4FF07E51099ABCF1010F11600AD0AD
:106E200001211A4692ED002A01318F4282EE012A99
:106E3000A2EC012AF6D108990A9A00BF92ED002A25
:106E4000013182EE012A82ED002A02F10402F5D11D
:106E50000599DDF818A0ACF1010B4FF000084E4683
:106E6000CDF80890804505D10AEB8E0A06EB8C061A
:106E700038E000BF099A96ED001ABBF1000F92EDC1
:106E8000002A21EE022A31EE422AA6EC012A16D06F
:106E90000122002403EB040906EB040E0132043442
:106EA00099ED002A9EED003A974221EE022A33EE38
:106EB000422A8EED002AEDD1DDF81CE02644089A26
:106EC0000A9C00BF94ED002A9AED003A013204F1C9
:106ED000040421EE022A33EE422A8AED002A0AF146
:106EE000040AEFD106EB800608F101080139B9D197
:106EF000039CDDF808900199DDF810C0DDF814B0AE
:106F00000130013F0B448C44A4F1010409F1040950
:106F10007FF428AFB5EE401A009FF1EE10FA1ED1B3
:106F20000EFB0BF10020002259B100BF97ED000AC3
:106F3000B5EE400AF1EE10FA03D1013204378A426D
:106F4000F4D38A4208BF6FF004000BB0BDE8F08FA5
:106F5000FD2250B20BB0BDE8F08FFB22F9E7002212
:106F6000F7E700BF000000002DE9F04F89B0468828
:106F70000B889E4240F08E80058813889D4240F029
:106F80008980B1F802E053889E4540F08380002359
:106F9000446852684968B7089FED410AA3EB960020
:106FA000089026F00300029206F00302019104EB20
:106FB000800B07FB0EF001EB00104FEA8E010090F2
:106FC00050420790CDE903E6029806950593DDE966
:106FD00000AC00EB830800BF002FB0EE401AE14682
:106FE00020462FD0089D63462046B0EE401A00BFD1
:106FF0005E1893ED002A90ED003A90ED014A90ED75
:10700000025A90ED036A1030013596ED007A06EBD6
:10701000010323EE022A93ED003A0B4431EE021AEB
:1070200093ED002A24EE074A0B4431EE041A25EEB4
:10703000033A31EE031A26EE022A31EE021AD7D1B4
:10704000D14658466AB1079D99ED002A90ED003A65
:107050008944013500F1040023EE022A31EE021AC0
:10706000F2D188ED001A0AF1040A0CF1040CBEF109
:10707000010E08F10408AFD1049E069DDDF80CE076
:10708000059B0BEB860B04EB86047344013D9BD1FF
:10709000002000E0FD2040B209B0BDE8F08F00BF45
:1070A000000000002DE9F04F82B0B0F800E04B88FE
:1070B0009E454BD144880B889C4247D100234E68A3
:1070C00004F0030B40684FEA0E184FEA940AA3EB52
:1070D0009401CBF1000901914FEA8E0132460096EE
:1070E000BAF1000F1CD0019F344600BF254604684A
:1070F00001372C6044686C5005EB0104D0F808C0DF
:1071000044F801C00C44C26800F11000625004EB66
:10711000010202EB0104E9D105EB080703E000BF1F
:10712000009A02EB8307BBF1000F07D04D4600BF6A
:1071300050F8042B01353A600F44F9D10436BEF102
:10714000010E03F10103CBD1002000E0FD2040B28D
:1071500002B0BDE8F08F00002DE9F04198B0044680
:107160000E460127E0783F2804D10121022000F0DB
:10717000DDF8D4E0E0784428FBD120796128F8D10B
:1071800060797428F5D1A0796128F2D1E07953288B
:10719000EFD1207A6528ECD1607A6E28E9D1A07A07
:1071A0006428E6D1E07A3D28E3D1002002908046B1
:1071B000002510E0605D22280BD1B8F1040F03DC3C
:1071C00002A800F8085002E04FF0FF3805E008F18F
:1071D0000108681CC5B2B542ECDB00BF9DF8080091
:1071E0000C2832D150210DF10F00FFF746F99DF820
:1071F00009000D3850280FDD002507E005F10D00CE
:10720000215C0DF10F004155681CC5B2502DF5DB16
:1072100050208DF80E0014E0002507E005F10D0068
:10722000215C0DF10F004155681CC5B29DF80900A5
:107230000D38A842F2DC9DF809000D38C0B28DF877
:107240000E0001208DF80C0000E00027012F58D11E
:107250009DF80A00401E205C2C2852D19DF80B108E
:10726000F01E81424DD12F4909680191002000256F
:107270000AE09DF80A10491C2944615C01AA1154D6
:10728000411CC8B2691CCDB29DF80B109DF80A20B4
:10729000891A491EA942ECDC002831DD012804D0FE
:1072A000022809D003282AD114E09DF804103039AF
:1072B000C9B28DF80D1022E09DF805209DF804104C
:1072C000303901EB810102EB41013039C9B28DF84F
:1072D0000D1014E09DF804103039642211FB02F205
:1072E0009DF80510303901EB810102EB41019DF859
:1072F000062011443039C9B28DF80D1000BF00BF0F
:1073000000E00027012F05D1532203A90648006899
:10731000FFF79AF83946012000F008F800BF18B0CE
:10732000BDE8F081A0560400103604002DE9F041BC
:1073300005460E460027012D02D0022D0AD106E097
:1073400016B90E4C072701E00D4C042703E00D4C45
:107350000D2700E000BF00BF0B48007820B9394678
:10736000204609F0E7FD07E007480078012803D12F
:107370003946204600F0CEFBBDE8F081242D0020E8
:10738000202D00202B2D0020382D002070B5044624
:107390000D4616462078412813D16078542810D124
:1073A000A0782B280DD1A81E205C0D2809D1681EBD
:1073B000205C0A2805D10348067029462046FFF7BD
:1073C000CBFE70BD382D002010B50648006800B90E
:1073D00010BD0448006810F0C9FB00200149086096
:1073E00000BFF5E7A03300200146144840788842EA
:1073F00001DC00207047114A117001EB4112104866
:107400000068401C00EBC2000C4A906010464078B7
:10741000401E884204D04FF48472084882810BE0F9
:107420000648808800EB4000400001EB4112A0EBD1
:10743000C20082B2014882810120DBE74C9E00201D
:10744000A033002070B51B48808800EB40004FF649
:10745000FF7101EA400400254FF4847094FBF0F0C2
:10746000C6B214488088282801DD002070BD12486B
:10747000006808B1FFF7A8FF601C12F0F7FA054694
:107480000DB90020F2E74FF4847094FBF0F100FB9B
:10749000114008B1701C00E03046064948700846AB
:1074A0004288601C81B228460EF0F0FC024805605C
:1074B0000120DBE74C9E0020A033002010B50748D8
:1074C000007838B100F00AF900F010F80020034904
:1074D000087001E000F014F810BD0000D133002066
:1074E0000149087070470000D133002010B50EF03C
:1074F0004FFB00200149087010BD0000CE33002072
:1075000010B56E48007848B941F288300FF0EDFAB6
:1075100000200FF0F3F901206849087067480078EF
:1075200001280DD1002144200EF08FFC6449086031
:107530006449084018B102206049087000E010BD9D
:107540005E480078022811D15D48008800F4804030
:1075500018B103205949087008E05B4A0021442013
:107560000FF0B5FB002055490870E8E75348007854
:10757000032820D14FF48042002144200FF0A7FBC4
:1075800000214C200EF061FC00F07F004F490860A4
:107590000846008881B200224D480FF0B3F84C48ED
:1075A0000078BB2803D104204449087003E0002080
:1075B00042490870C3E74148007804287BD1002481
:1075C000434840784349087000BF06E04049A01C8A
:1075D000085C41490855601CC4B2062CF6DB3C48E7
:1075E000407A3B49097A40EA01203B490881384802
:1075F000C07A3749897A40EA0120374948813448BE
:10760000407B3349097B40EA012033498881304877
:10761000807B88732E48C07B08742D48007C48749A
:107620002B48407CC8732A48C07C2949897C40EAA1
:107630000120294948822648007D08752448807D1C
:107640002349497D40EA0120234988612048C07DC3
:1076500008771F48007E48771D48807E1C49497E78
:1076600040EA01201C49C8831948C07E81F82000E7
:107670001748007F81F821001548407F8871144821
:10768000807F81F8220000F0DDF80C2000BF4FF071
:10769000A0431946D1F80425012383409343C1F840
:1076A0000835012383401340C1F80C3500BF00208A
:1076B0000249087000BF00BF41E70000CE33002040
:1076C000C433002000D0272400902724C833002092
:1076D000A0A00020CF330020F0A0002010B500248F
:1076E0000EF056FA0020504908702C214F48FEF742
:1076F000C4FE4F480078012803D1AA204B490870E6
:1077000008E04B480078022803D1CC204749087094
:1077100000E010BD002406E04648015D434AA01C7D
:107720001154601CC4B2062CF6DB42480089000AE2
:107730003E4908723F48007A48723E484089000A34
:1077400088723C48807AC8723A488089000A087377
:107750003848007B48733748807B88733548007C05
:10776000C8733448407C08743248C07B4874314840
:10777000408A000A88742F48807CC8742D48007F96
:1077800008752C48407F48752A48C08B000A8875C8
:107790002848807FC875274890F82000087625483B
:1077A00090F821004876234880798876214890F81F
:1077B0002200C8760E221F4923311C481C30FEF7D8
:1077C00043FE00242CE018480078184948701648F9
:1077D0000078401C14490870002214492C200FF036
:1077E000A3FA002211462C200FF0CAFA00200FF055
:1077F000B1F900BF002144200EF027FB08B9012099
:1078000000E000200C4908400028F3D1802200212C
:1078100044200FF05CFA0A200DF0FAFB601CC4B2A1
:107820000A2CD0DB00BF74E7D0330020C1A00020B9
:10783000D133002024A1002000D027240048704725
:1078400024A1002030B589B000240025202101A802
:10785000FEF713FE00BF08E06148425D2046611C50
:10786000CCB201A90A54681CC5B2062DF4DB5C48F1
:10787000008902122046611CCCB201A90A54584862
:10788000027A2046611CCCB201A90A5454484089AE
:1078900002122046611CCCB201A90A545048827AD7
:1078A0002046611CCCB201A90A544D4880890212BD
:1078B0002046611CCCB201A90A544948027B2046EB
:1078C000611CCCB201A90A544548827B2046611C48
:1078D000CCB201A90A544248C27B2046611CCCB2FA
:1078E00001A90A543E48027C2046611CCCB201A981
:1078F0000A543B48427C2046611CCCB201A90A5480
:107900003748408A02122046611CCCB201A90A54B1
:107910003348827C2046611CCCB201A90A5430480D
:10792000027D2046611CCCB201A90A542D48027880
:107930002046611CCCB201A90A542948008BC0F32F
:1079400007222046611CCCB201A90A542448027EB9
:107950002046611CCCB201A90A542148027F20466E
:10796000611CCCB201A90A541D48427F2046611C0B
:10797000CCB201A90A541A48C08B02122046611CDD
:10798000CCB201A90A541648827F2046611CCCB2B1
:1079900001A90A54124890F820202046611CCCB25C
:1079A00001A90A540E4882792046611CCCB201A973
:1079B0000A540B4890F821202046611CCCB201A942
:1079C0000A54074890F822202046611CCCB201A935
:1079D0000A54214601A805F0D9FD09B030BD0000C8
:1079E000F0A00020CF3300207CB505460C46A00057
:1079F00012F03CF80090ADF80440DDE90001C5E963
:107A000000017CBD10B50446206810F0AFF80020DE
:107A10002060A08010BD026802EB810282ED000AA6
:107A20007047000010B50246F0EE401A9FED290A9B
:107A3000B0EE402A02EB8203274C04EBC30003782C
:107A4000032B01DB002303700478031D03EB840385
:107A5000C3ED001A03785B1C0370D0ED010AB0EE91
:107A6000601AB0EE602A01212CE0031D03EB8103B4
:107A700093ED000AB4EEE00AF1EE10FA06DD031D04
:107A800003EB810393ED000AF0EE400A031D03EBC4
:107A9000810393ED000AB4EEC10AF1EE10FA06D2AA
:107AA000031D03EB810393ED000AB0EE401A031DA2
:107AB00003EB810393ED000A30EE020AB0EE402A98
:107AC0004B1CD9B20329D0DB32EE600A30EE410AFA
:107AD00010BD000000000000AC8E002010B510F0BA
:107AE00073F810F001F919F01FFF0BF013FA0DF005
:107AF0003DF917F0BBF90BF0FAFD00200BF056FA38
:107B0000012004F0E1F810BD10B518F0CFFB0CF027
:107B1000ADFD10BD7CB506460C460025002000904A
:107B200001901748007810B11548407800B97CBD25
:107B3000F42C00DDFBE7134814F09DFA00B1F6E7E2
:107B400011480088204441F69841884201DD002018
:107B500001E00D48008805460C4948192246314687
:107B6000FEF772FC08480580084828440090ADF8EC
:107B700004406946034814F096FA00BFD7E70000B6
:107B80006C6400209C7B04003C2D00207C42002083
:107B900038B5002000903E48007810B13C4840784D
:107BA00000B938BD3A4890F8FA0000B9F9E7394809
:107BB000007820B3384880880090374801683748FB
:107BC00003886A4636480CF06DFC0446082C0FD03A
:107BD000132C0DD0052C0BD000BF25463DB100BFA6
:107BE00030A24FF493712846FEF714FB00BF00BF8C
:107BF0002CB9002027490870254981F8FA003BE09C
:107C0000002225492F4814F0DDF9044600BF25461F
:107C10003DB100BF23A24FF499712846FEF7FAFA4E
:107C200000BF00BF1C48808800901B4801681B48AB
:107C300003886A461A480CF035FC0446082C0FD01D
:107C4000132C0DD0052C0BD000BF25463DB100BF35
:107C500014A240F239112846FEF7DCFA00BF00BF3B
:107C600034B900200B490870094981F8FA0003E093
:107C700001200849087007E00648007820B911483B
:107C800014F0EEF90028BBD000BF00BF89E7000068
:107C90006C6400203E2D0020402D0020702D00201F
:107CA000542D00202E2E5C426C655F706C617466F2
:107CB0006F726D5C7372635C626C655F6170702E75
:107CC000630000009C7B040010B50020054908708B
:107CD000054814F04EFA41F698410448FEF7CDFBF2
:107CE00010BD00003E2D00209C7B04007C42002043
:107CF00070B502460C46FF25FF2309E012F8010B80
:107D000080EA05010648405C80EA03050548435CBB
:107D1000201EA4F10106B4B2F0D143EA052070BDE3
:107D2000A0540400A05504002DE9F043C1B004465E
:107D30000D4616461F464FF001094FF00008242259
:107D40007F492AA8FEF780FB94ED000AF8EE000AAE
:107D500020EE200A8DED2A0A94ED010AF8EE000AC1
:107D600020EE200A8DED2B0A95ED000AF8EE000AB0
:107D700020EE200A8DED2D0A95ED010AF8EE000A9D
:107D800020EE200A8DED2E0A96ED000AF8EE000A8C
:107D900020EE200A8DED300A96ED010AF8EE000A79
:107DA00020EE200A8DED310A94ED020A20EE000A41
:107DB000D4ED000A94ED001A00EEC10AD4ED010AD8
:107DC00094ED011A00EEC10A8DED270A95ED020A25
:107DD00020EE000AD5ED000A95ED001A00EEC10A6A
:107DE000D5ED010A95ED011A00EEC10A8DED280AC4
:107DF00096ED020A20EE000AD6ED000A96ED001A72
:107E000000EEC10AD6ED010A96ED011A00EEC10A94
:107E10008DED290A24211EA8FEF72FFB242115A889
:107E2000FEF72BFB24210CA8FEF727FB242103A837
:107E3000FEF723FB00200090019002902AAB032262
:107E400011463FA8FEF723FF1EAB0322114639A8B7
:107E5000FEF71DFF15AB0322114637A8FEF717FFEB
:107E60000CAB0322114635A8FEF711FF03AB03222A
:107E7000114633A8FEF70BFF27AB012203213BA8D5
:107E8000FEF705FF6B46012203213DA8FEF7FFFE2A
:107E900000BF39A93FA8FFF705F98046B8F1000FE8
:107EA00002D04FF000092FE037AA3FA939A8FFF709
:107EB0005BF88046B8F1000F02D04FF0000923E0D4
:107EC00035A937A8FEF7E8FE8046B8F1000F02D0CA
:107ED0004FF0000918E033AA39A935A8FFF744F894
:107EE0008046B8F1000F02D04FF000090CE03DAA27
:107EF0003BA933A8FFF738F88046B8F1000F02D04D
:107F00004FF0000900E000BF00BFB9F1000F0DD035
:107F10003E9890ED000A87ED000A3E9890ED010A28
:107F200087ED010A012041B0BDE8F0839FED050A0D
:107F300087ED000A9FED030A87ED010A0020F2E7B2
:107F4000845C0400000000002DE9F0472DED068B55
:107F50009EB00446894616464FF0000AA9F101007A
:107F6000C7B2D04607EB47010EA8FFF73DFD3946E3
:107F70000CA8FFF739FD07EB47010AA8FFF734FD0E
:107F8000092108A8FFF730FD092106A8FFF72CFDFD
:107F900007EB470104A8FFF727FD0020019002909E
:107FA0000390D4ED000AB0EE600AF0EE000A09F08A
:107FB00023FFB0EE40AAD4ED010AB0EE600AF0EE65
:107FC000000A09F019FF3AEE00AAD4ED020AB0EE59
:107FD000600AF0EE000A09F00FFF3AEE00AAD4EDB5
:107FE000030AB0EE600AF0EE000A09F005FF3AEE6F
:107FF000400AF0EE409A012579E094ED000A04EB86
:108000000510D0ED000A30EE608A94ED010A04EB11
:108010000510D0ED010A70EE608A94ED020A04EBBF
:108020000510D0ED020A30EE609AF0EE000A68EE1C
:10803000200AB0EE600A681E00EB400081B20EA874
:10804000FFF7E9FCF0EE000A68EEA00AB0EE600A65
:10805000681E00EB4000401C81B20EA8FFF7DBFC5D
:10806000F0EE000A69EE200AB0EE600A681E00EB2E
:108070004000801C81B20EA8FFF7CDFC04EB051078
:10808000D0ED000AB0EE600AF0EE000A09F0B4FE8E
:1080900079EEC0AA04EB0510D0ED010AB0EE600A3B
:1080A000F0EE000A09F0A8FE7AEEC0AA04EB051073
:1080B000D0ED020AB0EE600AF0EE000A09F09CFE74
:1080C0007AEEC0AA04EB0510D0ED030AB0EE600A08
:1080D000F0EE000A09F090FE3AEE800AB0EE40AAF7
:1080E000681E81B20CA8FFF796FC681C85B24D454E
:1080F00083DBBDF82C100A98FEF7BFF9BDF82410F9
:108100000898FEF7BAF9BDF81C100698FEF7B5F905
:10811000BDF814100498FEF7B0F9032239461CA8E4
:108120000E9BFEF7B4FD3A46032116A80A9BFEF704
:10813000AEFD0322114614A8089BFEF7A8FD0322FA
:10814000114612A8069BFEF7A2FD3A46032110A88D
:10815000049BFEF79CFD0122394618A80C9BFEF7F4
:1081600096FD01AB012203211AA8FEF790FD00BF86
:1081700016A91CA8FEF796FF8046B8F1000F02D0A2
:108180004FF0000A31E014AA1CA916A8FEF7ECFE75
:108190008046B8F1000F02D04FF0000A25E012A986
:1081A00014A8FEF779FD8046B8F1000F02D04FF019
:1081B000000A1AE010AA16A912A8FEF7D5FE8046FA
:1081C000B8F1000F02D04FF0000A0EE01AAA18A969
:1081D00010A8FEF7C9FE8046B8F1000F02D04FF09C
:1081E000000A02E04FF0010A00BF00BF0EA8FFF72F
:1081F00009FC0AA8FFF706FC08A8FFF703FC06A87D
:10820000FFF700FC04A8FFF7FDFB0CA8FFF7FAFB43
:10821000BAF1010F14D11B9890ED000A86ED000A07
:108220001B9890ED010A86ED010A1B9890ED020A59
:1082300086ED020A01201EB0BDEC068BBDE8F0877A
:108240009FED060A86ED000A9FED040A86ED010AFD
:108250009FED020A86ED020A0020ECE70000000014
:1082600010B52DED108BB0EE408AF0EE608AB0EEC6
:10827000419AF0EE619AB0EE42AAF0EE62AAB0EE38
:1082800043BAF0EE63BA53EC1B2B51EC190BFEF71B
:10829000C9F941EC1F0B9FED181BB0EE4F0AF0EE31
:1082A0006F0A08F081FFB0EE40DAF0EE60DA53ECCE
:1082B0001A2B51EC180BFEF7B5F941EC1F0B9FED93
:1082C0000E1BB0EE4F0AF0EE6F0A08F06DFFB0EE35
:1082D00040EAF0EE60EA53EC1D2B51EC1E0BFEF76A
:1082E00000F941EC1C0BB0EE4C0AF0EE6C0A0AF0FF
:1082F000B5F8BDEC108B10BD000000000000004080
:1083000000B52DED108B89B0B0EE408AF0EE608A9A
:10831000B0EE419AF0EE619AB0EE42AAF0EE62AA97
:10832000B0EE43BAF0EE63BAB0EE44CAF0EE64CAFF
:10833000B0EE45DAF0EE65DA53EC1D2B51EC1A0B7A
:10834000FEF770F941EC1E0B9FED261BB0EE4E0AB6
:10835000F0EE6E0A08F028FF8DED040B53EC1C2B99
:1083600051EC190BFEF75EF941EC1F0B9FED1D1B45
:10837000B0EE4F0AF0EE6F0A08F016FFB0EE40EADA
:10838000F0EE60EA53EC1B2B51EC180BFEF74AF9A8
:1083900041EC1F0B9FED131BB0EE4F0AF0EE6F0A7E
:1083A00008F002FF8DED000B53EC1E2B9DED000B32
:1083B00051EC100BFEF795F8CDE902019DED040B91
:1083C00053EC102B9DED020B51EC100BFEF789F8CE
:1083D000CDE906019DED060B0AF040F809B0BDECB1
:1083E000108B00BD00000000000000402DE9F043AC
:1083F0002DED108B9DB006460D46F0EE408AB0EE96
:10840000609A17464FF00009C8464FF6FF7000EA21
:1084100045010DA8FFF7E8FA29460BA8FFF7E4FA93
:108420006804010C09A8FFF7DFFA042107A8FFF789
:10843000DBFA042105A8FFF7D7FA6804010C03A8AA
:10844000FFF7D2FA002001900290002477E004EBBD
:10845000440006EB800090ED010A10EE101A084669
:10846000FEF726FA41EC1B0B04EB440006EB800000
:1084700090ED000A10EE101A0846FEF719FA41ECCA
:108480001C0B19EE100AFEF713FA41EC1D0B18EE47
:10849000900AFEF70DFA41EC1E0BB0EE4B3AF0EEEF
:1084A0006B3AB0EE4C2AF0EE6C2AB0EE4D1AF0EEBC
:1084B0006D1AB0EE4E0AF0EE6E0AFFF7D1FEB0EE86
:1084C00040AAF0EE60AA51EC1A0BFEF735FA08EE5E
:1084D000100A04EB440006EB800090ED000A78EEF1
:1084E000C09A04EB440006EB800090ED010A39EEDF
:1084F00040FA89EE880AB0EE40AA4FF6FF7000EA13
:1085000044010DA8FFF787FA8FEE080AB0EE40AAE3
:10851000012000EB440081B20DA8FFF77CFA04EBC8
:10852000440006EB8000D0ED020A70EEC80AB0EEFF
:10853000600A21460BA8FFF76EFA601C84B2AC42B9
:1085400085DBBDF828100998FDF797FFBDF82010CE
:108550000798FDF792FFBDF818100598FDF78DFFFD
:10856000BDF810100398FDF788FF022229461BA8CA
:108570000D9BFEF78CFB2A46022115A8099BFEF7EE
:1085800086FB0222114613A8079BFEF780FB0222FE
:10859000114611A8059BFEF77AFB2A4602210FA877
:1085A000039BFEF774FB0122294617A80B9BFEF7DD
:1085B0006EFB01AB0122022119A8FEF768FB00BF88
:1085C00015A91BA8FEF76EFD8046B8F1000F02D07A
:1085D0004FF0000931E013AA1BA915A8FEF7C4FC4F
:1085E0008046B8F1000F02D04FF0000925E011A934
:1085F00013A8FEF751FB8046B8F1000F02D04FF0F0
:1086000000091AE00FAA15A911A8FEF7ADFC8046D3
:10861000B8F1000F02D04FF000090EE019AA17A917
:108620000FA8FEF7A1FC8046B8F1000F02D04FF072
:10863000000902E04FF0010900BF00BF0DA8FFF7DD
:10864000E1F909A8FFF7DEF907A8FFF7DBF905A8AC
:10865000FFF7D8F903A8FFF7D5F90BA8FFF7D2F970
:10866000B9F1010F0FD11A9890ED000A87ED000AB9
:108670001A9890ED010A87ED010A01201DB0BDECAA
:10868000108BBDE8F0839FED050A87ED000A9FED92
:10869000030A87ED010A4FF0FF30EFE7000000000A
:1086A0002DE9F0432DED108BA3B005460F46F0EEFB
:1086B000408AB0EE609AF0EE419A16464FF00009FB
:1086C000C84607EB470081B213A8FFF78DF939467A
:1086D00011A8FFF789F907EB470081B20FA8FFF750
:1086E00083F909210DA8FFF77FF909210BA8FFF7EE
:1086F0007BF907EB470081B209A8FFF775F9002065
:10870000069007900890002490E005EB041090ED8F
:10871000020A10EE101A0846FEF7CAF841EC1B0BCD
:1087200005EB041090ED010A10EE101A0846FEF752
:10873000BFF841EC1C0B05EB041090ED000A10EEA5
:10874000101A0846FEF7B4F841EC1D0B19EE900A1A
:10875000FEF7AEF8CDE9040119EE100AFEF7A8F80D
:10876000CDE9020118EE900AFEF7A2F8B0EE4B5ADE
:10877000F0EE6B5AB0EE4C4AF0EE6C4AB0EE4D3A69
:10878000F0EE6D3ACDE900019DED042B9DED021B4D
:108790009DED000BFFF7B4FDB0EE40AAF0EE60AA2D
:1087A00051EC1A0BFEF7C8F808EE100A05EB04109E
:1087B00090ED000A38EEC0EA05EB041090ED010AD6
:1087C00079EE40EA05EB041090ED020A39EEC0FAAA
:1087D0008EEE080AB0EE40AA04EB440081B213A862
:1087E000FFF719F98EEE880AB0EE40AA04EB4400B8
:1087F000401C81B213A8FFF70EF98FEE080AB0EE05
:1088000040AA04EB4400801C81B213A8FFF703F9CF
:1088100005EB0410D0ED030A70EEC80AB0EE600A52
:10882000214611A8FFF7F7F8601C84B2BC42FFF69E
:108830006CAFBDF840100F98FDF71FFEBDF8381063
:108840000D98FDF71AFEBDF830100B98FDF715FED8
:10885000BDF828100998FDF710FE0322394621A81B
:10886000139BFEF714FA3A4603211BA80F9BFEF751
:108870000EFA0322114619A80D9BFEF708FA0322EF
:10888000114617A80B9BFEF702FA3A46032115A8DA
:10889000099BFEF7FCF9012239461DA8119BFEF742
:1088A000F6F906AB012203211FA8FEF7F0F900BF7D
:1088B0001BA921A8FEF7F6FB8046B8F1000F02D0F5
:1088C0004FF0000931E019AA21A91BA8FEF74CFBC3
:1088D0008046B8F1000F02D04FF0000925E017A93B
:1088E00019A8FEF7D9F98046B8F1000F02D04FF071
:1088F00000091AE015AA1BA917A8FEF735FB804648
:10890000B8F1000F02D04FF000090EE01FAA1DA918
:1089100015A8FEF729FB8046B8F1000F02D04FF0F2
:10892000000902E04FF0010900BF00BF13A8FFF7E4
:1089300069F80FA8FFF766F80DA8FFF763F80BA812
:10894000FFF760F809A8FFF75DF811A8FFF75AF8DC
:10895000B9F1010F14D1209890ED000A86ED000ABC
:10896000209890ED010A86ED010A209890ED020A08
:1089700086ED020A012023B0BDEC108BBDE8F08328
:108980009FED070A86ED000A9FED050A86ED010AB4
:108990009FED030A86ED020A4FF0FF30EBE700007F
:1089A000000000001CB50346002400940194002040
:1089B00015E09DED000A03EBC004D4ED000A30EE93
:1089C000200A8DED000A9DED010A03EBC004D4EDF1
:1089D000010A30EE200A8DED010A441CE0B2884203
:1089E000E7DBDDED000A00EE101AB8EE400A80EE7B
:1089F000801A8DED001ADDED010A00EE101AB8EEB6
:108A0000400A80EE801A8DED011A9DED000A82ED7C
:108A1000000A9DED010A82ED010A1CBD2DE9F0411D
:108A20002DED0C8B86B004460E4617460025A84651
:108A30009FED870AF0EE408A002004900590029096
:108A400003900090019004AA31462046FFF7AAFF48
:108A500000BF4DE004EBC50090ED010A10EE101AC6
:108A60000846FDF725FF41EC1A0B04EBC50090ED1D
:108A7000000A10EE101A0846FDF71AFF41EC1B0B16
:108A80009DED050A10EE101A0846FDF711FF41ECA6
:108A90001C0B9DED040A10EE101A0846FDF708FFA6
:108AA00041EC1D0BB0EE4A3AF0EE6A3AB0EE4B2ABA
:108AB000F0EE6B2AB0EE4C1AF0EE6C1AB0EE4D0AE6
:108AC000F0EE6D0AFFF7CCFBB0EE409AF0EE609A44
:108AD00051EC190BFDF730FF08EE100AF4EEC88ACE
:108AE000F1EE10FA02D2F0EE488AA846681CC5B230
:108AF000B542AFDB701E404531D004EBC80090EDAD
:108B0000000A8DED000A04EBC80090ED010A8DED1E
:108B1000010A454613E0681C04EBC00090ED000A12
:108B200004EBC50080ED000A681C04EBC00090ED6A
:108B3000010A04EBC50080ED010A681CC5B2701E75
:108B4000A842E8DC9DED000A04EBC00080ED000ABD
:108B50009DED010A701E04EBC00080ED010A701E3D
:108B6000C6B202AA31462046FFF71CFF9DED030A5C
:108B700010EE101A0846FDF79BFE41EC1A0B9DED16
:108B8000020A10EE101A0846FDF792FE41EC1B0B8C
:108B90009DED050A10EE101A0846FDF789FE41EC1E
:108BA0001C0B9DED040A10EE101A0846FDF780FE1E
:108BB00041EC1D0BB0EE4A3AF0EE6A3AB0EE4B2AA9
:108BC000F0EE6B2AB0EE4C1AF0EE6C1AB0EE4D0AD5
:108BD000F0EE6D0AFFF744FBB0EE409AF0EE609ABB
:108BE0009FED1C0B53EC102B51EC190BFDF774FE91
:108BF00008D29DED040A87ED000A9DED050A87ED78
:108C0000010A1FE0012E18D19DED040ADDED020AD4
:108C100030EE200AF0EE000A80EE201A87ED001AEE
:108C20009DED050ADDED030A30EE200AF0EE000AA4
:108C300080EE201A87ED011A04E03A4631462046BC
:108C4000FFF7ECFE06B0BDEC0C8BBDE8F081000038
:108C5000000000000000000000002E4010B5044697
:108C60006948007858B900200DF03FFF00200DF052
:108C700045FE00206549088001206349087062486C
:108C8000007801280ED1002144200DF0DEF8604963
:108C900008606049084018B102205B49087001E093
:108CA000002010BD58480078022811D1584800888B
:108CB00000F4804018B103205349087008E0564A78
:108CC000002144200EF003F800204F490870E8E727
:108CD0004D48007803284ED14FF4804200214420B3
:108CE0000DF0F5FF00214C200DF0AFF800F07F00F3
:108CF0004A4908600846008881B2002248480DF0C1
:108D000001FD4748C078EF2811D145484078A0427E
:108D10000DD100203D49088004203B490870002007
:108D200040490860404908703D480079B9E73C482F
:108D3000C078E52820D13A484078A0421CD1384874
:108D40000078FF2818D100203049088005202E49DE
:108D50000870334800793549087031484179344802
:108D6000006880F83E112E4880783249086018214A
:108D70003148FDF782FB45E029484078A0421AD1EE
:108D80002748C078A12816D1254800782B490870BB
:108D9000234880782749086018212748FDF76DFB94
:108DA0000FF09EFB244948600020184908800620E7
:108DB0001549087026E01A484078A0421AD1184890
:108DC000C078C32816D1164800781C49087014488A
:108DD0008078184908600FF0AEFB174988600FF0E3
:108DE0007FFB154948610020084908800720064993
:108DF000087007E000200DF081FD01200249087095
:108E000000204EE700204CE7DA2F00204A2C0020FB
:108E1000D02F002000D0272400902724D42F00201A
:108E2000DB790020E02F0020DC2F0020E52F002040
:108E30000C36040060300020AC7C0020E62F0020BF
:108E400070B50546EC48007860B900200DF030FEA2
:108E500042F6F8200DF049FE00200DF04FFD0120F4
:108E6000E5490870E448007801280ED1002144202B
:108E70000CF0EBFFE1490860E149084018B102201D
:108E8000DD49087001E0002070BDDB480078022851
:108E900011D1DA48008800F4804018B10320D64987
:108EA000087008E0D74A002144200DF010FF002090
:108EB000D1490870E8E7D0480078032824D14FF45E
:108EC0008042002144200DF002FF00214C200CF0D4
:108ED000BCFF00F07F00CC4908600846008881B2E2
:108EE0000022CA480DF00EFCC848C078AB2807D154
:108EF000C6484078A84203D10420BF49087003E067
:108F00000020BD490870BFE7BB480078042874D131
:108F10007F22BE49BE48FDF797FABC480078FF287B
:108F200040D1BA480079BB490880B848407900046C
:108F3000B649097B40EA0140B449497B0843B64938
:108F40000860B248C079B149897940EA012000B28D
:108F5000B1498880AD48407AAC49097A40EA01209D
:108F600000B2AD49C880A948C07AA849897A40EAC8
:108F7000012000B2A8490881002411E00F2000EB75
:108F80004400A249085C0E2101EB44019F4A515C58
:108F900040EA0121A0480A3020F81410601CC4B235
:108FA000102CEBDB0FF09CFA9C49486008464168A6
:108FB000974808300EF0EFFC95480570934800780C
:108FC00093494870964800788870BC20C870002289
:108FD0000E200DF0A9FE012200210E200DF0D0FE82
:108FE00000200DF065FD42F21C500DF07EFD0220C8
:108FF0000DF0B0FD0520804908707F4800780528F5
:109000000ED1002144200CF020FF7C4908607C49EF
:10901000084018B106207849087001E0002033E7C5
:109020007548007806281ED17D480068FF2805D2C3
:109030007B480068401C7A49086002E000207849BB
:1090400008606E48008800F4804018B107206A4923
:10905000087008E06B4A002144200DF038FE002023
:109060006549087010E764480078072824D14FF458
:109070008142002144200DF02AFE00214C200CF0FA
:10908000E4FE00F07F00604908600846008881B275
:1090900000225E480DF036FB5C48C078CD2807D131
:1090A0005A484078A84203D108205349087003E089
:1090B000002051490870E7E64F480078082877D12A
:1090C00020265248007F012814D15649096881F8AA
:1090D00053004E48417F5348006880F8551051486E
:1090E000006890F8552049491E314E4800685630B6
:1090F000FDF7AAF97F2245494548FDF7A5F94448FF
:1091000005704248007842494870DE20C8700FF070
:1091100012FA424988600FF0E3F940494861084675
:1091200081683B480C300EF036FC3C4841693848B9
:1091300018300EF030FC3B4800680078344908775E
:10914000384800680078F8B1304800783549096837
:109150004978884218D13348006880782C4948778C
:109160003048006882782F480168C91C28481E30A2
:10917000FDF76AF900202B49096808702948006842
:1091800080783044C6B202E00020214948770022AE
:109190001F4930460DF0C8FD0122002130460DF078
:1091A000EFFD00200DF0D6FC09201349087000BF28
:1091B0001148007809281DD1002144200CF045FEFB
:1091C00000F08000A0B18022002144200DF07FFD3E
:1091D0000020094908700D480078FF2806D1124880
:1091E0000088401C1049088002204DE601204BE613
:1091F000002049E6002047E6CA2F0020C02F0020AB
:1092000000D0272400902724C42F0020DB790020E1
:109210005C790020CE2F00205C7A0020AC7C0020FE
:109220006030002010360400CC2F00202DE9F043E0
:1092300087B006460C4690461F46FA48007800283C
:109240007ED17F21F848FDF718F9F7480670447081
:10925000F6480078F4498870AB20C870084680F85A
:10926000048004EB440000EBC400F14951F82000F5
:10927000C0F30040EC49487104EB440000EBC4002B
:10928000EB4901EB80008088000AE749887104EB14
:10929000440000EBC400E64901EB80000079E2499C
:1092A000C87104EB440000EBC400E14901EB80000D
:1092B000C088000ADC49087204EB440000EBC400DB
:1092C000DB4901EB80008079D749487204EB440008
:1092D00000EBC400D64901EB80000089000AD249A6
:1092E000887204EB440000EBC400D14901EB80001C
:1092F000007ACD49C87204EB440000EBC400CC49AD
:1093000031F82000000AC849087304EB440000EB60
:10931000C400C74911F82000C3494873002520E064
:1093200004EB440000EBC400C14901EB80000A30AB
:1093300030F8150000120E2101EB4501BA4A00E099
:1093400028E0505404EB440000EBC400B84901EBA2
:1093500080000A3010F815000F2101EB4501505430
:109360006D1C102DDCD30022AF4930200DF0DCFC49
:109370000122002130200DF003FD00200DF098FBAC
:1093800042F21C500DF0B1FB02200DF0E3FB012076
:10939000A4490870A3480078012810D10021442076
:1093A0000CF053FDA3490860A349084018B10220FE
:1093B0009C49087003E0002007B0BDE8F08399489D
:1093C0000078022825D199480068FF2805D29748DF
:1093D0000068401C9549086002E00020934908603D
:1093E0009448008800F4804018B103208D4908702B
:1093F0000FE0924A002144200DF069FC8D4800687E
:1094000000F4081008B1FE2038700020854908706B
:10941000D2E784480078032828D14FF48142002104
:1094200044200DF054FC00214C200CF00EFD00F007
:109430007F00834908600846008881B20022814885
:109440000DF060F97F48C078BC280BD17D480078CA
:10945000A04207D17B484078B04203D10420714933
:10946000087003E000206F490870A5E76D48007898
:10947000042864D14FF020097F2272496A48FCF722
:10948000E3FF0FF058F8704908600FF029F86E49B3
:10949000C860084601686448001D0EF07CFA6A48FE
:1094A000C168614810300EF076FA5F48067044706B
:1094B000CD205D49C8705D480078887063480068B9
:1094C00000780877614800680078E8B15F48006874
:1094D0004078A04218D15D480068807848775B48A2
:1094E0000068827859480168C91C4F481E30FCF753
:1094F000ABFF00205549096808705448006880781F
:10950000484400F0FF0902E0002047494877002264
:10951000454948460DF008FC0122002148460DF05F
:109520002FFC00200DF0C4FA42F21C500DF0DDFAC1
:1095300002200DF00FFB05203A49087000BF3948A2
:10954000007805280ED1002144200CF07EFC39491A
:1095500008603949084018B106203249087001E016
:10956000002029E72F480078062825D12F480068D9
:10957000FF2805D22D480068401C2C49086002E0F5
:1095800000202A4908602B48008800F4804018B168
:109590000720244908700FE0284A002144200DF0DC
:1095A00096FB2448006800F4081008B1FE203870CB
:1095B00000201C490870FFE61A48007807284BD1A4
:1095C0004FF48142002144200DF081FB00214C200A
:1095D0000CF03BFC00F07F00194908600846008849
:1095E00081B2002217480DF08DF81648C078DE28A9
:1095F0000ED114480078A0420AD112484078B042F7
:1096000006D113480CF082FC08200649087023E0BC
:10961000104A002144200DF05AFB00200149087037
:10962000CAE60000BE2F00205C79002060300020D8
:10963000047D0020B42F002000D027240090272490
:10964000B82F0020DB790020AC7C0020103604000D
:10965000348E0020009005242D480078082855D12C
:109660002C48007F012814D12B49096881F8530048
:109670002848417F2848006880F85510264800682F
:1096800090F8552023491E31234800685630FCF7D6
:10969000DBFE69461F48001D0EF06DF901A91D484B
:1096A00008300EF068F902A91A480C300EF063F980
:1096B00003A9184810300EF05EF905A915481830B6
:1096C0000EF059F915490098086001984860029811
:1096D00088600398C8600EF02EFF10490861059855
:1096E000486106A9204607F097FB38B900200849D1
:1096F0000870FF203870BDF818005DE600200449AE
:10970000087001203870BDF8180055E6002053E6B7
:10971000BE2F0020DB79002010360400AC7C002036
:109720002DE9F04105460C4616461F467248007862
:1097300028BB7F217148FCF7A0FE7048057044707B
:109740006F4800786D498870EF20C8700846067130
:1097500042F234100DF0C9F9002268497F200DF063
:10976000E3FA012200217F200DF00AFB00200DF01A
:109770009FF902200DF0EEF902205F4908705E4863
:10978000007802280FD1002144200CF05EFB5D49D7
:1097900008605D49084018B103205749087002E08D
:1097A0000020BDE8F0815448007803283FD1544898
:1097B0000068FF2805D252480068401C50490860E4
:1097C00002E000204E4908604E48008800F48040C6
:1097D00018B104204849087029E04C4A002144206F
:1097E0000DF075FA4748006800F4081098B1484831
:1097F0000088032806DD00203F490870444908809E
:10980000401ECEE700203C49087041480088401CBB
:109810003F49088009E042F234100DF066F900205B
:109820000DF06CF80220344908700020B9E7324886
:109830000078042841D14FF48142002144200DF0EA
:1098400046FA00214C200CF000FB00F07F0031496B
:1098500008600846008881B200222F480CF052FFB1
:109860002D48C078FF280BD12B480078A04207D1A3
:1098700029484078A84203D105201F4908701CE000
:1098800000202649088024480078A0420DD12248B3
:109890004078B04209D100200DF030F8022016497E
:1098A000087000201A49088005E000200DF026F815
:1098B000022011490870002073E70F48007805283E
:1098C00018D11548007901280DD113488079124923
:1098D000497940EA012038600020074908700C49A6
:1098E000088001205DE700200349087008490880CE
:1098F000401E56E7002054E7F32F00205C7900203B
:1099000060300020E82F002000D02724009027247A
:10991000F42F0020EC2F0020DB7900204A2C0020BF
:109920002DE9F04105460F4614461E467F21184892
:10993000FCF7A3FD164805704770164800781449D7
:109940008870FF20C87008460671200A48718C7123
:10995000002209200DF0E8F90122002109200DF074
:109960000FFA00200DF0F6F800BF002144200CF0A3
:109970006CFA0949086000F080000028F5D08022C8
:10998000002144200DF0A3F90020BDE8F081000083
:109990005C79002060300020D02F00202DE9F047B6
:1099A0002DED048B0026B04600F00AFD0446B146BA
:1099B0000BF053FD06F032FD06F06BF802200BF0C1
:1099C00027FB00BF0BF098FD0028FBD000200CF017
:1099D000FFF840B900210C2011F097FD4FF4FA7008
:1099E0000BF016FB03E0BDEC048BBDE8F087002014
:1099F0000DF01EF803200DF031F8B4F801003949DC
:109A0000085C39490870B4F803003849085C3649E5
:109A1000887108460BF030FE8046B8F1000F04D183
:109A200001210C2011F071FD00E0DCE70CF068FA78
:109A300006462F492F4A891AC908032242EA0140E3
:109A400032462DA112F086F8300A2070B4F80500D5
:109A5000FCF7CFFE41EC190B9FED290B53EC102BBB
:109A6000FCF7E6FD41EC180BFCF7E4FE85B2B4F818
:109A70000500FCF7BEFE41EC190B9FED210B53ECEA
:109A8000102BFCF7D5FD41EC180BFCF7D3FE87B289
:109A9000A4F807501C480BF0C7FF28460DF03EF80D
:109AA00038460DF019F801200BF030FDE07A30B1A6
:109AB00006F0E0FC207B0DF03BF806F0AFFCB4F8BC
:109AC000030010B1012808D103E03220A4F80900F6
:109AD00004E01E20A4F8090000E000BF00BF00BFA2
:109AE00081E70000D82C0020DC2C0020DA2C00209C
:109AF000687B0400A87A040069643A2578000000B5
:109B0000000000000000E03F082D00207CB5044666
:109B10000DA103C9CDE90001002506F0ABFC2146EB
:109B20000B480BF015FD06F079FC00226946052074
:109B30000DF0FAF80022114605200DF021F9002061
:109B40000DF008F87CBD00004445434100000000D2
:109B500000CF030010B5044606F08CFC20460BF045
:109B600008FD06F05BFC10BD70B505460C4615B14E
:109B7000012D08D103E02046FFF7C8FF04E020468E
:109B8000FFF7E8FF00E000BF00BF70BD30B57D4AC1
:109B9000126812887C4B1A807A4A126852885A805E
:109BA000784A1268D2884FF47F4303EA0222754B49
:109BB0001B689B881A43744B9A80724A126892F809
:109BC0007920052A1BDB6F4A126892F87920092A4E
:109BD00015DC6C4A126892F87920092A01D100221A
:109BE00003E0684A126892F879201146654A1268C3
:109BF00092F87A20634B1B6883F879200EE0624A62
:109C00009279052A06DB604A9279082A02DC5E4ACC
:109C1000917903E05B4A126892F87910594A126808
:109C200012894FF47F4303EA02220A43564BDA803B
:109C3000544A126852891A81524A1268B2F8312184
:109C40004FF47F4303EA02224E4B1B68B3F83331D3
:109C50001A434D4B5A814B4A1268B2F872209A81CE
:109C6000484A1268B2F87420DA81464A1268B2F89B
:109C700035211A8200225A82424A1268B2F87720AD
:109C80009A8200201FE000EB400303EBC0043D4B31
:109C90001B688033E21813889CB200EB40030B333F
:109CA000394D25F8134053889CB200EB40030C3328
:109CB00025F8134093889CB200EB40030D3325F840
:109CC0001340421C90B21028DDDB2E4A126892F835
:109CD00076204FF47F4303EA02222A4B1B689B89BC
:109CE0001A43294BA3F87620002016E04200521CAC
:109CF000244B1B680E339A5C4FF47F4303EA022225
:109D0000204B1B680E3313F810301A4300F13C034C
:109D10001D4C24F81320421C90B23228E6DB194A6D
:109D2000126892F87E20174B1B6893F87D3042EA48
:109D30000322154BA3F8DC20124A126892F87B30FC
:109D4000104A126892F87F2043EA02220E4BA3F8D1
:109D5000DE200C4A126892F87C20002343EA02229B
:109D6000094BA3F8E020074A126892F83C31054AF3
:109D7000126892F83B2143EA0222034BA3F8E22047
:109D800030BD00000C3604004838002030B587B0E4
:109D900051480DF021FD5149514A891AC908032241
:109DA00042EA01404FA111F0CBFE534800F00301FD
:109DB00009B9012100E000210D464849484A891AA5
:109DC000C908032242EA01402B464B4A4BA111F03D
:109DD000CDFE0DF0F9FB044600BF25463DB100BFA6
:109DE0004AA24FF487712846FCF714FA00BF00BF5F
:109DF00019F060F8142102A8FCF73FFB02A80DF04F
:109E000005FD044600BF25463DB100BF3FA24FF40B
:109E10008A712846FCF7FEF900BF00BFBDF80C2090
:109E20002E492F4BC91AC908032343EA01403EA11A
:109E300011F090FEBDF80E202849294BC91AC90817
:109E4000032343EA01403EA111F084FEBDF80E0059
:109E5000052817DD2149224A891AC908032242EA46
:109E6000014045A111F06CFE00BF0DF08BFB0546D3
:109E70003DB100BF25A240F21D112846FCF7CAF9EA
:109E800000BF00BF0020009001906B463F4A0A21AE
:109E900001200DF037FC044648F20960844210D1DD
:109EA0000E490F4A891AC908032242EA014038A123
:109EB00011F046FE06F034FAFFF768FE00F0C2F932
:109EC00005E024B900F072F801203749087011F05C
:109ED00039FC07B030BD0000B9720300687B040094
:109EE000A87A0400496E697469616C697A696E6761
:109EF000206664732E2E2E004838002075313620DF
:109F0000616464723A25782C256400002E2E5C551D
:109F10007365725C464C4153485C6273705F666C5B
:109F20006173682E63000000466F756E64202564BF
:109F30002076616C6964207265636F7264732E00B1
:109F4000466F756E6420256420646972747920728E
:109F500065636F7264732028726561647920746F21
:109F6000206265206761726261676520636F6C6C57
:109F70006563746564292E005265636F7264732093
:109F800067632072756E2E2E2E000000303900207F
:109F900057726974696E6720636F6E6669672066C1
:109FA000696C652E2E2E0000542C00207CB50020FC
:109FB00000900190694619480DF0CEFB044600BFA1
:109FC00025463DB100BF16A24FF4AE712846FCF7FE
:109FD00021F900BF00BFE82218480199FCF734FAC4
:109FE0000E480DF05BFB044600BF25463DB100BFA7
:109FF0000BA240F263112846FCF70CF900BF00BF2A
:10A000000F49104A891AC908032242EA01400EA1E9
:10A0100011F096FD00F020F87CBD000030390020E2
:10A020002E2E5C557365725C464C4153485C6273DE
:10A03000705F666C6173682E630000004838002012
:10A04000687B0400A87A040047657420666C61731D
:10A050006820646174612E0078490988784A126822
:10A06000118076494988764A1268518073498988F7
:10A070000912734A1268D18070490979704A1268CE
:10A0800091806E49C98809126D4A126811816B4925
:10A0900089796B4A126882F879106949096891F8E0
:10A0A000791000290ADB6649096891F879100429BA
:10A0B00004DC0021624A126882F879105F4909893C
:10A0C0005F4A126851815D4949890A125C490968F1
:10A0D000A1F8312159498A7A59490968A1F83321EF
:10A0E00056498989564A1268A2F872105349C9899B
:10A0F000534A1268A2F8741050490A8A50490968F4
:10A10000A1F835214D49898A4D4A1268A2F8771085
:10A11000002030E000EB400202EBC003484A126826
:10A120008032991810B901228A710CE0444A1268F1
:10A13000B2F87720024102F0010212B101228A71C5
:10A1400001E000228A7100EB40020B323B4B33F8F6
:10A15000122012B20A8000EB40020C3233F81220B7
:10A1600012B24A8000EB40020D3233F8122012B2D4
:10A170008A80411C88B21028CCDB3049B1F87610B7
:10A18000090A2F4A126882F876102C4991F8761045
:10A190002B4A12689181002017E000F13C01274A08
:10A1A00032F811100B0A4100491C254A12680E3280
:10A1B000535400F13C01214A12F81120204909684A
:10A1C0000E3101F81020411C88B23228E5DB1B4912
:10A1D000B1F8DC1009121A4A126882F87D1017498A
:10A1E00091F8DC201649096881F87E201349B1F8FE
:10A1F000DE100A121249096881F87F200F4991F890
:10A20000DE100F4A126882F87B100C49B1F8E0109A
:10A2100009120B4A126882F87C100849B1F8E21062
:10A220000A120749096881F83B21044991F8E220A4
:10A230000349096881F83C21704700004838002034
:10A240000C3604003EB5FFF7A1FC0A20ADF8020071
:10A250000120ADF800001C4801903A2102911B48F2
:10A260000078012805D1694619480DF09DFA044689
:10A2700004E0694616480DF0A5FA044674B148F2A8
:10A28000066084420AD11349134A891AC908032275
:10A2900042EA0140114911F053FC13E000BF25468A
:10A2A0003DB100BF0EA24FF4A6712846FBF7B2FFE6
:10A2B00000BF00BF18F0FEFD0448007810B901206F
:10A2C000024908703EBD000048380020542C002090
:10A2D00030390020687B0400A87A0400085F04007D
:10A2E0002E2E5C557365725C464C4153485C62731C
:10A2F000705F666C6173682E630000002DE9F84F93
:10A300000026002000904FF480770125002410E003
:10A31000384611F01BF940B100BF254800682840BD
:10A3200018B1384611F004F92E436D00381D87B27C
:10A33000641C082CECD34FF4BE7011F007F950B137
:10A340004FF4BE7011F0F4F846F000466A46012161
:10A35000002010F0E9FFF0B210B3012500241DE049
:10A3600005EA0600C0B100BF124850F82400C0F34F
:10A370000420814600BF0F4850F82400C0F301407C
:10A38000824620460AF0ACFA8046B8F1000F02D0AF
:10A3900051464846C04700BF6D00641C082CDFD3FF
:10A3A00006F0004010B1684615F0EAFEBDE8F88FEF
:10A3B0000463004010650040004870471A340020D4
:10A3C000004870474A3500202DE9F0410446BF4857
:10A3D000007800287ED10027FFF7EEFF06463221E5
:10A3E000BB48FCF74AF8BB480068FF2805D2B948CB
:10A3F0000068401CB749086002E00020B5490860C9
:10A40000FF20B349087008464470B248007888704D
:10A41000AA20C870B6F87700000A087196F877008D
:10A4200048713079887104EB440000EBC400AA49FC
:10A4300051F82000C0F30040A549C87104EB440066
:10A4400000EBC400A44901EB80008088000AA04909
:10A45000087204EB440000EBC4009F4901EB80004C
:10A4600000799B49487204EB440000EBC4009A4910
:10A4700001EB8000C088000A9549887204EB440013
:10A4800000EBC400944901EB800080799049C872C8
:10A4900004EB440000EBC4008F4901EB800000890D
:10A4A000000A8B49087304EB440000EBC4008A499E
:10A4B00001EB8000007A8649487304EB440000EB0E
:10A4C000C400854931F82000000A8149887304EBF3
:10A4D000440000E048E000EBC4007F4911F8200090
:10A4E0007B49C87300251FE004EB440000EBC40067
:10A4F000794901EB80000A3030F81500000A10217C
:10A5000001EB4501724A505404EB440000EBC400D7
:10A51000714901EB80000A3010F81500112101EBA0
:10A5200045015054681CC5B2102DDDDB002268497E
:10A5300032200CF0F9FB0022114632200CF020FCF6
:10A5400000200CF0B5FA41F288300CF0CEFA02206F
:10A550000CF000FBC7B21FB901205C49087002E093
:10A560000220BDE8F08100BF58480078012811D1D1
:10A57000002144200BF069FC00F0800040B18022F3
:10A58000002144200CF0A3FB02205049087001E098
:10A590000020E6E74D480078022802D103204B490D
:10A5A00008704A48007803280ED1002144200BF09F
:10A5B0004CFC4A4908604A49084018B10420434904
:10A5C000087001E00020CCE74048007804281FD143
:10A5D0004248008800F4804018B105203B490870CB
:10A5E00016E0404A002144200CF071FB002037495E
:10A5F00008703A48006800F4081008B10320B0E77A
:10A6000000200CF07BF90320304908700020A8E7F7
:10A610002E480078052856D14FF48042002144206E
:10A620000CF055FB00214C200BF00FFC00F07F00DC
:10A630002D4908600846008881B200222B480CF0A2
:10A6400061F82A480078A0422AD12848C078AB286F
:10A6500026D100201D49087018212548FBF70DFF61
:10A660000DF03EFF2249486020480079012815D1AD
:10A670001E4841791F48006880F855101D48006841
:10A6800090F855201949891D1A4800685630FBF783
:10A69000DBFE01201749096881F85300012060E7BB
:10A6A00012484078A04208D11048C078BC2804D194
:10A6B000002006490870042053E700200CF01EF922
:10A6C00003200249087000204BE7000037300020CB
:10A6D000887A002060300020047D00202C3000208B
:10A6E00000D027240090272430300020C17B002098
:10A6F000AC7C0020103604002DE9F04104460D46E4
:10A7000016466148007868B90020604908800BF05F
:10A710003FFA00200CF0E9F900200CF0EFF80120DE
:10A720005949087059480088B04209DD002057494E
:10A730000880554908700BF02BFA0220BDE8F08123
:10A740005148007801280ED1002144200BF07DFBF8
:10A750004F4908604F49084018B102204A49087023
:10A7600001E00020EAE748480078022810D1484874
:10A77000008800F4804018B103204349087007E0C6
:10A78000454A002144200CF0A2FA00203E490870FE
:10A790003D480078032832D14FF480420021442004
:10A7A0000CF095FA00214C200BF04FFB00F07F00DD
:10A7B0003A4908600846008881B2002238480BF008
:10A7C000A1FF37480078A84207D13548C078CD2886
:10A7D00003D104202C49087011E03148C078DE28EC
:10A7E0000AD12F480078FF2806D10020264908709A
:10A7F000264908800220A1E700202349087022484A
:10A80000007804282AD10027FF2C04D0C4F1FF00CF
:10A81000C0F11000C7B20DF08EFE224988600421FD
:10A8200001EB87011E4A88181E490C310DF0A3F870
:10A830001C491B4844300DF09EF81A491031184845
:10A8400048300DF098F80DF04BFE16494861164857
:10A850000BF05CFB05200C49087000BF0A4800782B
:10A8600005280FD11149284606F0D6FA012804D050
:10A87000002005490870022060E7002002490870A6
:10A8800001205BE7002059E7073000200C30002052
:10A89000FC2F002000D0052400900524003000206B
:10A8A000C17B0020AC7C0020348E002008300020CA
:10A8B00070B504465F48007850BB00255E48002113
:10A8C00001608180FF205C490870084644705B4845
:10A8D00000788870DE20C870002206200CF024FA70
:10A8E0000122002106200CF04BFA00200CF0E0F8C9
:10A8F0004FF4FA600CF0F9F802200CF02BF9C5B215
:10A900001DB901204B49087001E0022070BD00BF55
:10A9100048480078012811D1002144200BF095FA15
:10A9200000F0800040B18022002144200CF0CFF9DB
:10A9300002204049087001E00020E7E73D48007828
:10A9400002280ED1002144200BF07FFA3C49086018
:10A950003C49084018B103203649087001E0002046
:10A96000D4E734480078032819D13548008800F42A
:10A97000804018B104202F49087010E0324A0021AD
:10A9800044200CF0A4F900202A4908702C480068E3
:10A9900000F4081008B10220B8E70020B6E7254807
:10A9A0000078042843D10203002144200CF08FF9E1
:10A9B00000214C200BF049FA00F07F002349086089
:10A9C0000846008881B2002221480BF09BFE2048F7
:10A9D0004078FF2825D11E48C078EF2821D11C4897
:10A9E0000078A0421DD1C4F1FF00C0F11000C1B237
:10A9F00017480279012A0FD101208840154B1B68A6
:10AA00001843144B186012488079114B5B7940EA67
:10AA10000320114B43F821000020064B1870012041
:10AA200074E700200BF06AFF022002490870002042
:10AA30006CE70000393000200E300020603000202C
:10AA40002C30002000D02724009027243030002014
:10AA5000C17B002098330020C47C00202DE9F04702
:10AA600004460F46154639480078002856D18246DC
:10AA70004FF0080958213648FBF7FFFC34480470B2
:10AA800047703448007832498870BC20C870084646
:10AA90000571FF2C02D14FF0010A05E0C4F1FF005F
:10AAA000C0F1110000F0FF0A012D14D12A480068FE
:10AAB00080782749487128480068827826480168CC
:10AAC000C91C2348801DFBF7BFFC23480068807821
:10AAD000484400F0FF090BF06FFE80461F4800FB62
:10AAE0000A8840460BF05BFF0022194948460CF0EB
:10AAF0001BF90122002148460CF042F900200BF01E
:10AB0000D7FF01200CF026F806461EB901200F4998
:10AB1000087002E00220BDE8F08700BF0B48007813
:10AB2000012810D1002144200BF08FF900F08000A3
:10AB300048B18022002144200CF0C9F800200349CC
:10AB400008700120E7E70020E5E70000063000205C
:10AB5000127B0020603000201036040000E7010066
:10AB600070B504468D48007840B900200BF0BDFF59
:10AB700000200BF0C3FE0120884908708748007848
:10AB800001280ED1002144200BF05FF984490860B0
:10AB90008449084018B102208049087001E0002073
:10ABA00070BD7E480078022811D17D48008800F4ED
:10ABB000804018B103207949087008E07A4A0021E2
:10ABC00044200CF084F8002074490870E8E77348CA
:10ABD0000078032877D100254FF4804200214420DB
:10ABE0000CF075F800214C200BF02FF900F07F00DD
:10ABF0006E4908600846008881B200226C480BF05C
:10AC000081FD6B480078FF2826D16948C078AA28C2
:10AC100022D167494979664A127941EA022064499A
:10AC20004978644A117062498978634A1160A4F1D5
:10AC3000EF0140FA01F101F0010119B101215F4A70
:10AC4000117002E000215D4A117000215C4A117010
:10AC500000255C4A118099E05548C078AB2818D18E
:10AC60005348807854490968884212D15048007886
:10AC70005049097888420CD118215348FBF7FDFB55
:10AC80000DF02EFC5049486000204E4908800125F7
:10AC90007CE047480078FF2816D14548C078DE2878
:10ACA00012D143484078A0420ED1414880784249B1
:10ACB0000968884202D0002041490870022500201E
:10ACC0004049088062E066E0394840783F490978A9
:10ACD000884218D13648C078A12814D13448007869
:10ACE0003B4908703248807833490860182136485B
:10ACF000FBF7C3FB0DF0F4FB3349486000203149FA
:10AD00000880032542E02A48407830490978884283
:10AD100018D12748C078C32814D1254800782C4979
:10AD2000087023488078244908600DF004FC264907
:10AD300088600DF0D5FB2449486100202149088036
:10AD4000042523E01A480078FF281FD118484078CE
:10AD50001E490978884219D11548C078E52815D1CF
:10AD6000134800791B490870114841791A48006856
:10AD700080F83E110E4880780F490860182112486B
:10AD8000FBF77BFB00200F490880052500200349C5
:10AD90000870284604E7002002E700004A3000203F
:10ADA0004030002000D005240090052444300020CD
:10ADB000C17B00204D300020603000204E3000204C
:10ADC0004F3000204A2C0020AC7C00205030002066
:10ADD00053300020523000200C36040070B5044679
:10ADE0002548007800282FD12448002101604160C7
:10ADF00001720470FF202149487021480078887052
:10AE0000EF20C8701F48007808711F480088000AAA
:10AE100048711D4800788871002209200BF084FFDA
:10AE20000122002109200BF0ABFF00200BF040FEB7
:10AE300000200BF08FFEC5B21DB901200E4908702D
:10AE400001E0022070BD00BF0B480078012810D13E
:10AE5000002144200AF0F9FF00F0800048B1802270
:10AE6000002144200BF033FF00200349087001202B
:10AE7000E8E70020E6E700004B300020B87B002028
:10AE8000603000204F3000200830002070B50546AB
:10AE90008C48007840B900200BF027FE00200BF012
:10AEA0002DFD0120874908708648007801280ED1C1
:10AEB000002144200AF0C9FF834908608349084003
:10AEC00018B102207F49087001E0002070BD7D4864
:10AED0000078022811D17C48008800F4804018B125
:10AEE00003207849087008E0794A002144200BF0DB
:10AEF000EEFE002073490870E8E7724800780328E6
:10AF00002DD14FF48042002144200BF0E0FE0021BF
:10AF10004C200AF09AFF00F07F006E490860084656
:10AF2000008881B200226C480BF0ECFB6A48007884
:10AF3000FF280BD168484078A84207D16648C078FE
:10AF4000AA2803D104205F49087008E000200BF014
:10AF5000CCFD00200BF0D2FC01205A490870594862
:10AF6000007804284CD15C4880785C4908705A48C5
:10AF700080795B4908705848C07900045649897B3C
:10AF800040EA01205449C97B0843564908605248A9
:10AF9000407A5149097A40EA012000B2514988803B
:10AFA0004D48C07A4C49897A40EA012000B24D49A7
:10AFB000C8804948407B4849097B40EA012000B2EB
:10AFC00048490881002411E0112000EB4400424967
:10AFD000085C102101EB44013F4A515C40EA012129
:10AFE00040480A3020F81410601CC4B2102CEBDB6F
:10AFF00040213D48FBF741FA05203249087000BF67
:10B0000030480078052844D1082658213748FBF7F6
:10B0100034FA364805700020344948702F480078CB
:10B020008870AB20C870324800680078C0B1012039
:10B0300008712F480068807848712D480068827830
:10B040002B480168C91C2948801DFBF7FDF9002029
:10B050002749096808702648006880783044C6B2DD
:10B060000022224930460BF05FFE012200213046CB
:10B070000BF086FE00200BF01BFD00200BF06AFD9C
:10B08000C4B21CB906200F49087001E002201DE778
:10B0900000BF0C480078062812D1002144200AF095
:10B0A000D4FE0949086000F0800048B180220021E8
:10B0B00044200BF00CFE002002490870012005E737
:10B0C000002003E71E3000201430002000D0272489
:10B0D0000090272418300020C17B00200A30002077
:10B0E0002A300020407C00206C7C0020BA7A0020AE
:10B0F0001036040070B504466A480078012806D16D
:10B1000069480078032802DA062067490870664813
:10B11000007848B90AF03CFD002064490880644981
:10B1200008800120604908705F480078012808D134
:10B1300000200BF0DAFC00200BF0E0FB02205A4963
:10B1400008705948007802280ED1002144200AF0E6
:10B150007CFE584908605849084018B103205249FC
:10B16000087001E0002070BD4F48007803281DD111
:10B170005048008800F4804018B104204A49087003
:10B1800014E04E4A002144200BF0A1FD4548007810
:10B19000012803D106204449087007E000200BF085
:10B1A000ADFB0220404908700020DCE73E480078F3
:10B1B000042825D10203002144200BF088FD002142
:10B1C0004C200AF042FE00F07F003D49086008462E
:10B1D000008881B200223B480BF094FA394840784D
:10B1E000A04207D13748C078BC2803D105202E499A
:10B1F000087005E000200BF081FB02202A4908704E
:10B200002948007805283AD12E480578FF2D04D129
:10B210000DF066F92C49086008E00DF061F9C5F100
:10B22000FF01C1F11001284A42F8210025480079A8
:10B23000012815D1234841792448006880F8551029
:10B240002248006890F855201E49891D1F48006853
:10B250005630FBF7F9F801201C49096881F85300C2
:10B2600010480078012803D106200F49087005E036
:10B2700000200BF043FB02200B49087000BF0A4876
:10B28000007806280BD1002006490870064908708E
:10B290000AF07EFC002006490880012063E70020B8
:10B2A00061E70000233000201F3000204C2C0020DC
:10B2B0004A2C00201430002000D02724009027249E
:10B2C00018300020C17B00206C7C00201036040068
:10B2D0002DE9F04780463E480078002860D14E2195
:10B2E0003C48FBF7CAF83B4880F800800020394909
:10B2F0004870394800788870CD20C87000240AE072
:10B30000364A52F82410A200121D324BD0180CF00D
:10B3100042FB601CC4B2102CF2DB0DF00CF930497A
:10B320000860084601682B4844300CF034FB0BF0F1
:10B3300043FA82462B48007840F2E71110FB01F0F7
:10B340000AEB402738460BF02AFB27F001000102E8
:10B3500025480068B0F837010D1829461D4800F14E
:10B3600048000CF018FB00221A494E200BF0DCFCC0
:10B37000012200214E200BF003FD00200BF098FB72
:10B3800001200BF0E7FB00F0FF09B9F1000F03D13A
:10B3900001200F49087002E00220BDE8F08700BFDD
:10B3A0000B480078012810D1002144200AF04DFDFF
:10B3B00000F0800048B18022002144200BF087FC7F
:10B3C0000020034908700120E7E70020E5E70000BE
:10B3D000203000206A7B00200A3000206C7C002096
:10B3E00024300020293000200C36040010B5012143
:10B3F000192010F06DF801211A2010F069F800F002
:10B4000031F80021192010F063F800F02BF800212A
:10B410001A2010F05DF800F025F810BD10B50021DD
:10B42000192010F055F801211A2010F051F800F001
:10B4300019F80121192010F04BF810BD10B50121A9
:10B44000192010F045F800F00DF801211A2010F035
:10B450003FF800F007F800211A2010F039F800F04A
:10B4600001F810BD032000BF011EA0F10102D0B2FF
:10B47000FAD1704770B52DED108B86B004460D469D
:10B48000164694ED000AB0EE40BA94ED010AF0EED3
:10B4900040BA94ED020AF0EE409A95ED000AB0EE43
:10B4A00040DA95ED010AF0EE40DA95ED020AB0EED1
:10B4B00040AA96ED000AB0EE40EA96ED010AF0EEE1
:10B4C00040EA96ED020AF0EE40AA3BEEED0A10EEDD
:10B4D000101A0846FBF7ECF941EC1C0B9FEDAE1B74
:10B4E000B0EE4C0AF0EE6C0A05F05EFE8DED020B3C
:10B4F0003BEE4D0A10EE101A0846FBF7D9F941EC65
:10B500001C0B9FEDA51BB0EE4C0AF0EE6C0A05F08B
:10B510004BFE8DED000B9DED020B53EC102B9DEDC2
:10B52000000B51EC100BFAF7DCFFCDE904019DEDA7
:10B53000040B06F093FFB0EE40FAF0EE60FA51EC27
:10B540001F0BFBF7F9F908EE100A3BEEEE0A10EEBE
:10B55000101A0846FBF7ACF941EC1C0B9FED8E1B53
:10B56000B0EE4C0AF0EE6C0A05F01EFE8DED020BFB
:10B570003BEE4E0A10EE101A0846FBF799F941EC23
:10B580001C0B9FED851BB0EE4C0AF0EE6C0A05F02B
:10B590000BFE8DED000B9DED020B53EC102B9DED82
:10B5A000000B51EC100BFAF79CFFCDE904019DED67
:10B5B000040B06F053FFB0EE40FAF0EE60FA51ECE7
:10B5C0001F0BFBF7B9F908EE900A3DEEEE0A10EEFC
:10B5D000101A0846FBF76CF941EC1C0B9FED6E1B33
:10B5E000B0EE4C0AF0EE6C0A05F0DEFD8DED000BBE
:10B5F0003DEE4E0A10EE101A0846FBF759F941ECE1
:10B600001C0B9FED651BB0EE4C0AF0EE6C0A05F0CA
:10B61000CBFDB0EE40FAF0EE60FA9DED000B53EC7E
:10B62000102B51EC1F0BFAF75CFFCDE902019DEDE9
:10B63000020B06F013FF8DED040B9DED040B51EC96
:10B64000100BFBF779F909EE100A38EE280A544876
:10B65000D0ED000A69EE200AB4EEE00AF1EE10FA2D
:10B660007EDD38EE090AD0ED000A68EEA00AB4EEDD
:10B67000E00AF1EE10FA73DD38EE890AD0ED000A27
:10B6800068EE200AB4EEE00AF1EE10FA68DDB0EEE2
:10B6900048FAB4EEE8FAF1EE10FA01D2B0EE68FA28
:10B6A000B4EEC9FAF1EE10FA01D2B0EE49FAB4EEF6
:10B6B000E9FAF1EE10FA0ED2B4EECAFAF1EE10FA8F
:10B6C00009D2B4EEEAFAF1EE10FA04D2002006B084
:10B6D000BDEC108B70BD18EE100AFBF7E9F841ECD9
:10B6E0001C0B1AEE100AFBF7E3F8CDE9040119EE82
:10B6F000900AFBF7DDF8B0EE4C2AF0EE6C2ACDE9AB
:10B7000002019DED041B9DED020B00F04BF840B3D0
:10B7100018EE900AFBF7CCF841EC1C0B1AEE900ADD
:10B72000FBF7C6F8CDE9040119EE900AFBF7C0F863
:10B73000B0EE4C2AF0EE6C2ACDE902019DED041B1F
:10B740009DED020B00F02EF858B119EE100AFBF730
:10B75000AFF8CDE904011AEE900AFBF7A9F801E071
:10B7600017E014E0CDE902011AEE100AFBF7A0F889
:10B7700041EC1C0B9DED042B9DED021BB0EE4C0A21
:10B78000F0EE6C0A00F00EF808B101209FE70020EF
:10B790009DE700209BE70000000000000000004043
:10B7A0009C33002010B52DED0A8BB0EE408AF0EEF0
:10B7B000608AB0EE419AF0EE619AB0EE42AAF0EEE5
:10B7C00062AA53EC192B51EC180BFAF78AFE41ECE4
:10B7D0001B0B53EC1A2BFBF77FF824D29FED3B0B8E
:10B7E00053EC102B51EC180BFAF722FF41EC180B1D
:10B7F0009FED360B53EC102B51EC190BFAF718FF99
:10B8000041EC190B53EC192B51EC180BFAF769FEAC
:10B8100041EC1B0B53EC1A2BFBF75EF803D2002014
:10B82000BDEC0A8B10BD53EC192B51EC180BFAF739
:10B83000F9FE41EC1C0BB0EE4C0AF0EE6C0A05F080
:10B84000A9FCB0EE40BAF0EE60BA53EC1A2B51EC02
:10B850001B0BFBF759F836D253EC192B51EC180B94
:10B86000FBF752F80AD29FED190B53EC102B51EC59
:10B87000190BFAF7DDFE41EC190B09E09FED130BF4
:10B8800053EC102B51EC180BFAF7D2FE41EC180BCD
:10B8900053EC192B51EC180BFAF7C4FE41EC1C0BBE
:10B8A000B0EE4C0AF0EE6C0A05F074FCB0EE40BA53
:10B8B000F0EE60BA53EC1A2B51EC1B0BFBF724F89B
:10B8C00001D20020ACE70120AAE70000CDCCCCCC0F
:10B8D000CCCCF03F38B50B20224908700E2088717F
:10B8E0000F20087311F062FA38B911F0F5F9044627
:10B8F00000BF204600B138BD00BF1B480068009063
:10B9000003208DF80100194A69460B2011F060F9F7
:10B91000044600BF204600B1EDE700BF134A694668
:10B920000E2011F055F9044600BF204600B1E2E7B1
:10B9300000BF0E4A69460F2011F04AF9044600BFC5
:10B94000204600B1D7E700BF01210B2011F0EAF833
:10B9500001210E2011F0E6F801210F2011F0E2F88C
:10B960000020C8E70834002008360400658503007D
:10B9700010B5B0EE403AF0EE603AB0EE414A024601
:10B98000F0EE444AB0EE632A02EB82031F4C04EB54
:10B99000C30031B990ED071A90ED045A75EE020A12
:10B9A00010E0012906D190ED081A90ED055A75EEC8
:10B9B000020A07E0022905D190ED091A90ED065A16
:10B9C00075EE020A30EEA45AC0EE852A33EE415AD3
:10B9D000B0EE410A02EE850AB7EE005A35EE625A21
:10B9E00065EE201A21B980ED070AC0ED041A0CE0BB
:10B9F000012904D180ED080AC0ED051A05E00229ED
:10BA000003D180ED090AC0ED061A10BDAC8E0020EE
:10BA10002DE9F0418748007810BB8748807A0328D9
:10BA20001AD18548007C032816D18448008840F24A
:10BA3000DC5188420FDD8249824A891AC9080322F3
:10BA400042EA014080A110F07BF80120794908709A
:10BA500000207A490880EAE0002078490880E6E082
:10BA60004FF000087448807A032808D17248007C9F
:10BA7000032804D1002071490880BDE8F0816E4898
:10BA8000807A02283ED175480068008910B10128EB
:10BA900030D117E071490968887A411CC8B263281F
:10BAA00000DD00206D490968498901F47F416B4A36
:10BAB000126851816949096849890143674A1268D6
:10BAC000518118E0654909684989080A411CC8B2D2
:10BAD0000E2800DD002061490968897A5F4A1268F2
